:020000040800F2
:10000000A8130020A53E0008FD3C0008FF3C0008A6
:10001000013D0008033D0008053D00080000000008
:100020000000000000000000000000007729000828
:10003000073D00080000000031290008093D0008C4
:10004000F53E0008F93E0008FD3E0008013F0008AB
:10005000053F0008093F00080D3F0008113F000858
:10006000153F0008193F00081D3F0008213F000808
:10007000253F0008293F00082D3F0008313F0008B8
:10008000353F0008393F00083D3F0008113D00089A
:100090001B3D0008253D00082F3D0008413F00089A
:1000A000453F0008493F00084D3F0008513F000808
:1000B000393D0008553F0008593F00085D3F0008E2
:1000C000613F0008653F0008693F00086D3F000878
:1000D000713F0008753F0008793F00087D3F000828
:1000E000813F0008853F0008893F00082DE9F04165
:1000F0000400002500270026002C01D10120A2E0E9
:1001000094F83C00002805D1002084F83D00200030
:1001100000F0B8FD022084F83C002068006830F050
:100120000200216808602068006850F00100216822
:10013000086000F023FE804620684068C0070DD4A8
:1001400000F01CFEB0EB08000B28F5D3032084F868
:100150003C00002084F83D00032074E020684068E3
:10016000C00763D5A069012802D156F0800601E0DE
:1001700036F08006E069012802D156F0400601E021
:1001800036F04006206A012802D156F0200601E030
:1001900036F02006606A012802D156F0100601E010
:1001A00036F01006A06A012802D156F0080601E0D8
:1001B00036F00806E06A012802D156F0040601E094
:1001C00036F004062068006830F0FC0030432168F7
:1001D0000860A168E0680143206901436069014348
:1001E0006068401E01432068C161206800684008C3
:1001F00040002168086000F0C1FD8046206840682A
:10020000C0070DD500F0BAFDB0EB08000B28F5D300
:10021000032084F83C00002084F83D00032012E015
:1002200020684068C00701D401200500012D06D1D7
:1002300000202064012084F83C00002003E004201A
:1002400084F83C000120BDE8F08130B402000024B5
:1002500001204B6910FA03F31068D0F8000230F463
:100260007C504D6A50EA052050F001001568C5F831
:1002700000021068D0F81C0298431568C5F81C02EB
:10028000C86900281CD11068D0F80C029843146883
:10029000C4F80C0210684C6900EBC400CC684D68CF
:1002A000ADB255EA0445C0F8405210684C6900EB05
:1002B000C4008C680D68ADB255EA0445C0F84452DC
:1002C000C86901281CD11068D0F80C0218431468C2
:1002D000C4F80C0210684C6900EBC4000C684D684F
:1002E000ADB255EA0445C0F8405210684C6900EBC5
:1002F000C4008C68CD68ADB255EA0445C0F84452DC
:100300008869002807D11068D0F80402984314685F
:10031000C4F8040206E01068D0F804021843146818
:10032000C4F804020869002807D11068D0F8140244
:1003300098431468C4F8140206E01068D0F8140258
:1003400018431468C4F81402086A012806D110681A
:10035000D0F81C0218431468C4F81C021068D0F8C6
:100360000002400840001468C4F80002002030BCBD
:10037000704710B40100042208688068400108D466
:1003800008688068000104D408688068C00040F1F3
:10039000C48091F83D00012801D10220C1E0012074
:1003A00081F83D0008688068400101D5002306E01F
:1003B00008688068000101D5012300E00223086875
:1003C0001A011044D0F8800110F001000A681C01E5
:1003D0002244C2F88001086B8068002811D10868A7
:1003E0001A011044D0F880010A6B12680C6BE468A3
:1003F00054EA425420430A681C012244C2F8800196
:1004000013E008681A011044D0F88021086B406896
:100410000C6BA46854EAC004086BC0680443224310
:1004200008681C012044C0F88021086B007C10F093
:100430000F000A6B106108681A011044D0F884019B
:10044000000900010A681C012244C2F884010868FE
:100450001A011044D0F88421086B0069024308682F
:100460001C012044C0F88421086BC07D0A6B927D7A
:10047000120452EA0062086B407D52EA0022086BC7
:10048000007D024308681C012044C0F88821086BE5
:10049000C07E0A6B927E120452EA0062086B407EB4
:1004A00052EA0022086B007E024308681C012044C7
:1004B000C0F88C2191F83C00222804D0322806D0C4
:1004C000622808D00BE0422081F83C000AE052206C
:1004D00081F83C0006E0722081F83C0002E0122026
:1004E00081F83C0000200864002081F83D00086885
:1004F0001A011044D0F8800150F001000A681C0174
:100500002244C2F880010868406940F40F4050F06E
:1005100001000A685061002003E0042081F83C00DB
:10052000012010BC704702000800C0B2002811D1A1
:1005300092F83C0022280BD092F83C00422807D0C9
:1005400092F83C00622803D092F83C00722801D156
:10055000022072E00800C0B2012811D192F83C00DC
:1005600032280BD092F83C00522807D092F83C0079
:10057000622803D092F83C00722801D102205CE08E
:1005800092F83D00012801D1022056E0012082F8B6
:100590003D000800C0B2002818D192F83C00122893
:1005A00004D0322806D0522808D00BE0422082F82E
:1005B0003C0023E0622082F83C001FE0722082F8B9
:1005C0003C001BE0222082F83C0017E092F83C003F
:1005D000122804D0222806D0422808D00BE052204E
:1005E00082F83C000AE0622082F83C0006E07220BB
:1005F00082F83C0002E0322082F83C0000201064C7
:100600001068406940F40F4050F0010013685861D1
:10061000002082F83D000800C0B2002806D1106812
:10062000406950F00A001368586105E0106840699D
:1006300050F0500013685861002070472DE9F047D2
:100640008046002200235FF000095FF0000AD8F81E
:100650000000C068000910F00100D8F800104969D6
:10066000C1F3C00111F00101002807D0002905D015
:100670005AF4007A1022D8F80030DA60D8F8002056
:100680001669360916F00106D8F800205269C2F33F
:10069000801717F00107002E07D0002F05D05AF45D
:1006A000806A1020D8F800100861D8F8000040696E
:1006B000C0074DD5AB48D8F8001089680140814289
:1006C00001D1012600E00026A748D8F8001089686B
:1006D0000140814201D1012700E00027A348D8F85A
:1006E000001089680140814202D15FF0010901E0F8
:1006F0005FF0000957EA060059EA0000002827D0F9
:10070000D8F800008068400810F001000600D8F812
:1007100000008068400A10F001000700D8F80000CF
:10072000806810F00100814657EA060059EA00008F
:10073000002803D0404600F01FF901E05AF4006A97
:10074000D8F8000081688A480143D8F80000816029
:10075000D8F80000C46814F00304D8F80000406919
:10076000C0F3400515F00105002C05D0002D03D085
:100770000021404600F02FF9D8F80000066916F075
:100780000306D8F800004069C0F3001717F001070E
:10079000002E05D0002F03D00121404600F01BF9A8
:1007A000D8F840005AEA0000C8F84000D8F8000025
:1007B000806910F00100D8F800104969C1F30021E8
:1007C00011F00101D8F800205269C2F3C03212F0D2
:1007D0000102002809D0002907D0002A05D0D8F846
:1007E000403053F00103C8F84030D8F800309B691E
:1007F0005B0813F00103D8F800406469C4F3402497
:1008000014F00104D8F800506D69C5F3C03515F037
:100810000105002B09D0002C07D0002D05D0D8F8F9
:10082000400050F00200C8F84000D8F8000082698B
:10083000920812F00102D8F800004069C0F380204D
:1008400010F00100D8F800104969C1F3C03111F06F
:100850000101002A09D0002807D0002905D0D8F8C6
:10086000403053F00403C8F84030D8F800309B699A
:1008700013F0700F01D1012400E00024D8F800200B
:100880005269C2F3C02515F00105D8F8002052695D
:10089000C2F3C03616F00106002C49D1002D47D016
:1008A000002E45D0D8F80000806910F070000400D8
:1008B000200010280AD020280FD0302814D040283B
:1008C00019D050281ED0602823D029E0D8F8400045
:1008D00050F00800C8F8400022E0D8F8400050F07E
:1008E0001000C8F840001BE0D8F8400050F020008D
:1008F000C8F8400014E0D8F8400050F04000C8F8B4
:1009000040000DE0D8F8400050F08000C8F84000EA
:1009100006E0D8F8400050F48070C8F84000FFE7C7
:10092000D8F80000806930F07000D8F800108861B5
:10093000D8F84000002811D00420D8F800104860F2
:10094000012088F83C00D8F80000416909480140BE
:10095000D8F800004161404600F028FBBDE8F08770
:100960000000000001000004000100080000011068
:1009700009050100A470FFFF10B50400206840695C
:10098000400840002168486194F83C00122805D1D5
:100990002068406930F40F402168486194F83C00B9
:1009A000422804D0522806D0722808D00BE022201A
:1009B00084F83C000AE0322084F83C0006E0622023
:1009C00084F83C0002E0012084F83C00200000F0A4
:1009D000F4FA002010BDF8B504000D00002100203D
:1009E0002A00D2B2002A01D1666B00E0A66B206813
:1009F0002A00D2B212011044D0F8B00110F0040065
:100A0000B060B068002809D120682A00D2B2120173
:100A10001044D0F8B001400D306008E020682A0092
:100A2000D2B212011044D0F8B001C0087060206842
:100A30002A00D2B212011044D0F8B00110F0020026
:100A4000F06020682A00D2B212011044D0F8B4013C
:100A500010F00F0030612800C0B2306220682A0018
:100A6000D2B212011044D0F8B401C0F30720F061F3
:100A700020682A00D2B212011044D0F8B8013075B3
:100A800020682A00D2B212011044D0F8B801000A3E
:100A9000707520682A00D2B212011044D0F8B80153
:100AA000000CB07520682A00D2B212011044D0F8B0
:100AB000B801000EF07520682A00D2B2120110446D
:100AC000D0F8BC01307620682A00D2B2120110445E
:100AD000D0F8BC01000A707620682A00D2B2120158
:100AE0001044D0F8BC01000CB07620682A00D2B2C5
:100AF00012011044D0F8BC01000EF0762800C0B2FC
:100B0000002809D120202268D0602068406930F098
:100B10000A002268506108E02020226810612068E5
:100B2000406930F050002268506194F83C70222FE8
:100B300001D0322F05D12068406930F40F40216880
:100B400048612800C0B2002818D194F83C0042281F
:100B500004D0622806D0722808D00BE0122084F856
:100B60003C0023E0322084F83C001FE0522084F84F
:100B70003C001BE0012084F83C0017E094F83C00A6
:100B8000522804D0622806D0722808D00BE0122028
:100B900084F83C000AE0222084F83C0006E0422071
:100BA00084F83C0002E0012084F83C00200000F0C2
:100BB000F3F90020F2BD30B4002513E050F8042B07
:100BC000D30744BFA9F101039A18091F042942F869
:100BD000045BFAD213468C0744BF15809B1CC907DF
:100BE00048BF1D7050F8041B0029E7D130BC704786
:100BF00080B55B48016851F001010160006810F0A8
:100C00000100009000985748016851F08051016040
:100C1000006810F0805000900098032000F083FCE2
:100C2000002200217FF00B0000F083FC0022002155
:100C30007FF00A0000F07DFC002200217FF0090017
:100C400000F077FC002200217FF0040000F071FC2E
:100C5000002200217FF0030000F06BFC00220F2136
:100C60007FF0010000F065FC00220F215FF0FF30F3
:100C700000F05FFC3C49086830F0E06050F0007024
:100C8000086001BD30B585B004002068374988424E
:100C900040D13448016851F000710160006810F0E3
:100CA0000070009000984FF40060019000200290C6
:100CB000002003902E4D01A9280000F07BFC4FF48A
:100CC00080500190022002900320049001A9280086
:100CD00000F070FC00220521132000F02AFC1320F4
:100CE00000F03CFC00220521142000F022FC14201E
:100CF00000F034FC00220521152000F01AFC15201C
:100D000000F02CFC00220521162000F012FC162019
:100D100000F024FC05B030BD81B00168154A914255
:100D200009D110490A6852F004020A60096811F0FA
:100D300004010091009901B070471FB504002068BC
:100D40000C4988420AD14FF4707000900220019043
:100D5000022003906946084800F02CFC1FBD0000EB
:100D6000181002401C1002400400014000640040C2
:100D70000008014000080040000C014001480068E4
:100D8000704700BF600F0020BFF34F8FDFF844169D
:100D90000A6812F4E062DFF8400602430A60BFF31B
:100DA0004F8F00BFFDE738B50400DFF83056002054
:100DB000A8600020286000202873002068730020AD
:100DC00028613220E8640FF2A54068622863E86277
:100DD000A8623221C5F88010A86568662866E865B3
:100DE000002185F88410C5F89800DFF8F415C5F8DF
:100DF0008C10C5F89400C5F89000012185F8B81052
:100E0000C5F8CC00DFF8DC15C5F8C010C5F8C8007F
:100E1000C5F8C40000F0C4FA2869002802D1642093
:100E200000F057F9DFF8C05500222021280000F01B
:100E3000DFFC00224FF48051280000F0D9FCDFF8DD
:100E4000AC5500220021280000F0D8FA64220421C9
:100E5000280000F0D3FA00220821280000F0CEFA82
:100E600064220C21280000F0C9FADFF88455012221
:100E70008021280000F0BCFC322000F038FA00226B
:100E80008021280000F0B4FC31BDF8B50400DFF883
:100E90004C55687B052812D100206873DFF8506537
:100EA00001224FF40071300000F0A2FC0A2000F093
:100EB0001EFA00224FF40071300000F099FC287BEC
:100EC000032817D100202873DFF824654FF48071C0
:100ED000300000F082FC0028F6D00020616B08751D
:100EE0000420216B08752000FFF743FAFFF746FF47
:100EF000070001E000204EE0606B007D062808D06E
:100F0000FFF73CFFC01B40F2E9318842F4D30320D5
:100F100041E00020616B0875606B407E2871606B5A
:100F2000807E616BC97E51EA0021A960606B407DC3
:100F3000616B897D090451EA0061606BC07D51EAF3
:100F40000021606B007E0143296000F0F5F92868FC
:100F5000616B486000206873DFF88C5401224FF405
:100F60000041280000F044FC022000F0C0F90022FB
:100F70004FF40041280000F03BFC012280213000AA
:100F800000F036FCC82000F0B2F9002280213000C9
:100F900000F02EFC0020F2BD10B50400002120005E
:100FA000FFF7C1FA200000F00FF810BD10B50400E3
:100FB00000212000FFF7B7FA10BD10B50400002192
:100FC0002000FFF7B0FA10BD10B50400606B007D83
:100FD00000280CD001283ED002283FD0032807D09B
:100FE00005280CD007280FD0092827D039E038E091
:100FF000DFF8E803032101730021417331E005208C
:10100000DFF8D81348732CE0DFF8D003616B497E1A
:101010004175616B897E626BD27E52EA0122C28287
:10102000417D0279914208D1C18A8268914204D1FE
:1010300007218173616B097E017512E0DFF89C0363
:10104000616B497E0279914202D10921017601E06A
:101050000021017605E000F005F802E0FFF794FEBC
:10106000FFE710BD10B5DFF88443642200212000A3
:1010700000F0C4F964220421200000F0BFF96422CA
:101080000821200000F0BAF964220C21200000F0B1
:10109000B5F9192000F0DAFBD049887F0028FBD190
:1010A00091F852000028F7D100220021200000F022
:1010B000A5F964220421200000F0A0F900220821F3
:1010C000200000F09BF964220C21200000F096F92A
:1010D00010BD10B50400C148046100F02DF910BD29
:1010E0002DE9F84F0400BD4DA87B072840F0BC80D7
:1010F000287E092840F0B88028690128C0F2B48011
:101100000020A87300202876287D002800F0AB80FE
:10111000B74E01228021300000F06AFB287D8DF857
:10112000000000275FF0000840469DF80010C0B2A4
:10113000884261D200200700FFF720FE8146DFF8D9
:10114000ACA264220021504600F058F96422042128
:10115000504600F053F964220821504600F04EF941
:1011600064220C21504600F049F9DFF87CA20122EC
:101170002021504600F03CFB01224FF480515046A4
:1011800000F036FB322000F0B2F83800C0B2002880
:101190002FD1A87F002803D195F85200002820D035
:1011A00001200700FFF7EAFD82465FF0000BA87FF1
:1011B000002803D195F85200002809D0FFF7DEFD82
:1011C000B0EB0A0041F641718842F0D3012083461A
:1011D0005846C0B2002804D12869401E286100F09A
:1011E000ABF8FFF7CBFDB0EB090047F23151884275
:1011F000CBD318F1010897E700228021300000F0DE
:10120000F7FA7A4E00220021300000F0F7F864224D
:101210000421300000F0F2F800220821300000F034
:10122000EDF864220C21300000F0E8F86E4E002248
:101230002021300000F0DCFA00224FF48051300011
:1012400000F0D6FA0820216B08752879216B4876C2
:10125000A868000A216B8876A868216BC8762000F0
:10126000FFF787F8FFE7FFE7BDE8F18F704738B574
:1012700010215F4800F0B1FA002801D1012200E0FE
:101280000022564CD2B2012114F11C0000F0F2FAF7
:10129000554D0821280000F0A0FA002801D10122B4
:1012A00000E00022D2B2012114F1500000F0E2FA75
:1012B0000121280000F091FA002801D1012200E06C
:1012C0000022D2B2012114F1840000F0D3FA0221ED
:1012D000280000F082FA002801D1012200E000225B
:1012E000D2B2012114F1B80000F0C4FA31BD38B512
:1012F0000400FFF743FD0500FFF740FD401BA0423F
:10130000FAD331BD0100C9B200290AD03949334AA4
:1013100013790B6093684B6013688B601269CA6025
:1013200009E034492D4A0B6813714B6893608B6850
:101330001360C9681161704778B585B00120FFF767
:10134000E1FF00200190012004902B4C0394002029
:10135000009000F088FB00281FD1694601A800F02A
:101360000DFC002819D100250A2D0ADA214850F871
:101370002520002314EBC501022000F01DFB6D1C8D
:10138000F2E700F081FB502400251A4E2A002100CC
:10139000300000F071FC002000E0012006B070BDBC
:1013A00080B500F060FB002812D100200A2808DA7E
:1013B000114911EBC00109680E4A42F82010401C87
:1013C000F4E700F061FB0020FFF79CFF002000E045
:1013D000012002BD0CED00E00400FA050C0C002019
:1013E000C93B0008233C0008000C0140C80D002048
:1013F00000080140480E002000F0000830B400232F
:10140000642A01DB64242200012A01DA002422007C
:10141000C4686425B4FBF5F454430D00002D06D0D8
:10142000042D07D0082D08D00C2D09D00BE003683F
:101430005C6308E003689C6305E00368DC6302E02A
:1014400003681C64FFE730BC7047010210B410F061
:101450000703504C22684FF6FF010A404E4951EAFB
:1014600003210A43226010BC70474A480068C0F359
:1014700002207047012210F01F018A4047490300F3
:101480005BB25B0941F82320704710B4020052B2EE
:10149000002A09D50A01424B040064B214F00F047B
:1014A000234403F8042C04E00A013E4B040064B218
:1014B0001A5510BC704770B4030013F00704D4F140
:1014C0000700052801D3042001E0D4F10700251D01
:1014D000072D01D2002500E0E51E012616FA00F0D6
:1014E000401E0140A94016FA05F56D1E2A40114321
:1014F000080070BC704710B50400601EB0F1807F1A
:1015000001D301200EE0601E274908600F215FF023
:10151000FF30FFF7BAFF0020244908600720244964
:101520000860002010BD10B504002000FFF78EFFFA
:1015300010BD2DE9F04104000D0016000027FFF753
:1015400094FF8046320029004046FFF7B4FF0100B7
:10155000200040B2FFF799FFBDE8F08110B504000C
:10156000200040B2FFF786FF10BD10B50400200038
:10157000FFF7C1FF10BD042805D10D490A6852F0DC
:1015800004020A6004E00A490A6832F004020A60B0
:10159000704700000CED00E00000FA0500E100E0FB
:1015A00018ED00E000E400E014E000E018E000E0E6
:1015B00010E000E02DE9F84702000B0000250026AE
:1015C000002100275FF000085FF0000EBEF1100F51
:1015D00080F00181012010FA0EF005001868284003
:1015E0000600AE4240F0F4805868002831D001284F
:1015F00020D0022825D003283CD011281DD0122845
:1016000023D0DFF808C2604523D0DFF804C260456C
:101610001FD0DFF800C260451BD0DFF8FCC1604579
:1016200017D0DFF8F8C1604513D0DFF8F4C160458A
:101630000FD022E0D86807001FE0D868001D07001F
:101640001BE0D8680830070017E0D8680C300700A6
:1016500013E09868002802D10420070009E0986888
:10166000012803D108200700156102E008200700C7
:10167000556102E000200700FFE7B6F5807F01D248
:10168000140000E0141DB6F5807F02D25FEA8E08D8
:1016900003E0BEF108085FEA88085FF00F09D4F89C
:1016A00000C019FA08F03CEA000C17FA08F050EAFA
:1016B0000C0CC4F800C05868C00040F1898059483B
:1016C000D0F800C05CF0010CC0F800C0006810F059
:1016D000010000900098DFF850C1704680085CF867
:1016E00020A01EF00300C0B2800019FA00F93AEA07
:1016F000090A4E48824202D15FF0000913E04C48CB
:10170000824202D15FF001090DE04A48824202D1D3
:101710005FF0020907E04848824202D15FF0030906
:1017200001E05FF004091EF00300C0B2800019FA66
:1017300000F9514659EA0101704680084CF8201022
:101740005868C00307D53D48D0F800C056EA0C0CD5
:10175000C0F800C006E03948D0F800C03CEA060CEA
:10176000C0F800C05868800307D53548D0F800C0DD
:1017700056EA0C0CC0F800C006E03148D0F800C0B2
:101780003CEA060CC0F800C05868C00207D52D48D6
:10179000D0F800C056EA0C0CC0F800C006E029489A
:1017A000D0F800C03CEA060CC0F800C058688002BF
:1017B00007D52548D0F800C056EA0C0CC0F800C088
:1017C00006E02148D0F800C03CEA060CC0F800C092
:1017D0001EF1010EFAE6BDE8F187020090680B00E9
:1017E0009BB2184201D0012000E00020C0B2704737
:1017F0001300DBB2002B03D00B009BB2036103E0AC
:101800000B009BB21B040361704700000000111025
:101810000000121000002110000022100000311002
:10182000000032101810024008000140000801407A
:10183000000C014000100140001401400004014070
:1018400004040140080401400C04014070B5040088
:10185000FFF794FA0500260016F1010F02D00448A4
:1018600000788619FFF78AFA401BB042FAD370BDA0
:101870000800002070B504000D00160060780028F4
:1018800007D1002060620020E0620120607000202B
:10189000A070216A2800C0B2411821623000C0B295
:1018A00000286AD0616A2800C0B241186162606A8B
:1018B00014284BD3A078002848D10120A070002024
:1018C000E0700020A0626079002801D1012000E0D2
:1018D000002060716079002802D0206AA06101E0D8
:1018E000206AE061A069E169884209D2216BE2695E
:1018F000A069121A914203D22078A16888470CE0AF
:10190000E069A169884208D2216BA269E069121AD4
:10191000914202D22078A1688847A069E169884293
:1019200008D2E169A069091AFA2903D2207861690D
:1019300088470BE0E069A169884207D2A169E069A4
:10194000091AFA2902D2207861698847606AB0F5DD
:10195000C87F01D301202071207900282BD0E16AB3
:101960002800C0B24118E162E06A502823D32078F1
:10197000216988470020E0621DE03000C0B20028E5
:1019800019D1A16A2800C0B24118A162A06A142826
:1019900011D31420A0620120E070A078002802D0AA
:1019A0002078E1688847002060620020E062002023
:1019B000A0700020207170BD2DE9F14F82B08946E2
:1019C00092469B4601208DF8000000240025DFF898
:1019D0009061307E012801D1022042E00120307662
:1019E0004CF25037380000F060F880464046C0B2F4
:1019F000002832D10298012802D10120050007E019
:101A00000298022802D10220050001E0042005000E
:101A10000020040020002900C0B2C9B288421CD2B4
:101A200050465946E4B2220100F05AF9010089B249
:101A30002000C0B219EB400000F02DF8380000F093
:101A400034F880464748016849084900016040462B
:101A5000C0B2002801D1641CDCE70020307640468B
:101A6000C0B2BDE8FE8F00203E490A68120609D5C3
:101A70003E4A3F4B13603F4B13600968090601D58E
:101A800001210800C0B270473648016851F080015A
:101A90000160002070470022314BDA61314A13683F
:101AA00053F0010313600180704738B50400FFF75D
:101AB00065F905002C480168C9070BD514F1010F21
:101AC000F8D0002C04D0FFF759F9401B8442F1D222
:101AD000032013E00168890601D520210160016817
:101AE000C90606D424490968C90702D4006840071A
:101AF00003D500F004F8012000E0002032BD10B44E
:101B0000002119480268D20606D5154AD36953F058
:101B10000203D36151F010010268520706D5104A42
:101B2000D36953F00103D36151F00401124B1A68D9
:101B3000D20708D50A4AD46954F00404D4611A685B
:101B4000520852001A6040F20112914204D1186802
:101B500040084000186000E0016010BC70470000C1
:101B6000980E0020102002400C2002400420024069
:101B700023016745AB89EFCD1C2002402DE9F843D6
:101B800004000D0001260027DFF8E08098F8180017
:101B9000012801D1022049E0012088F818002068BE
:101BA000022814D14CF250394846FFF77EFF002836
:101BB00037D1012000F03CF84846FFF776FF0600D9
:101BC000DFF8AC00016831F00401016029E04CF25B
:101BD00050394846FFF769FF002822D15FF0FF30F7
:101BE0002860A0680700E1684FF48062A06802FBEB
:101BF00001018F4215D2380000F029F84846FFF75E
:101C000054FF0600DFF86800016831F0020101604E
:101C10003000C0B2002801D02F6002E017F58067C5
:101C2000E1E7002088F818003000C0B2BDE8F28378
:101C30000021DFF83820D161DFF834100A6852F053
:101C400004020A600A6852F040020A6070470021EC
:101C5000064AD16106490A6852F002020A60054A42
:101C600010600A6852F040020A607047980E002027
:101C7000102002401420024062F30F2262F31F4240
:101C8000401810F0030308D0C91A1FD3DB0748BF60
:101C900000F8012D28BF20F8022D130030B414469F
:101CA0001546103928BF20E93C00FAD8490728BF5B
:101CB00020E90C0048BF40F8042D890028BF20F817
:101CC000022D48BF00F8012D30BC7047C91818BF5D
:101CD00000F8012DCB0728BF00F8012D7047000048
:101CE000D2B2203A22BF21FA02F0002170472032FE
:101CF000D141D04048409140D14048407047000019
:101D00002DE9F84F84B006000F0090469946DDF8A3
:101D100038A0DDF83CB0404680B2800000F0BCFB4B
:101D20000500002D0BD0542000F0B6FB0400002C61
:101D300001D0256304E0280000F03EFC00E0002410
:101D4000002C12D0002003900294CDF804B0CDF8FE
:101D500000A04B46424692B23900300000F00AF82B
:101D6000200000F06AF8012001E05FF0FF3005B0CC
:101D7000BDE8F08F2DE9F84F05000E0017009846DA
:101D8000DDF828900B9CDDF830A0DAF8300000EB8D
:101D90008700001FC008C0000090009810F0070FD7
:101DA00007D0502080F31188BFF34F8FBFF36F8FA0
:101DB000FEE75FF0000BBBF1100F0CD216F80B0022
:101DC0000AEB0B0181F8340016F80B00002802D052
:101DD0001BF1010BEFE700208AF84300B9F1070F70
:101DE00001D306208146CAF82C90CAF844900020FE
:101DF000CAF848001AF1040000F097FC1AF1180024
:101E000000F093FCCAF810A0D9F10700CAF8180036
:101E1000CAF824A00020CAF84C0000208AF850001C
:101E200042462900009800F0BFFCCAF80000002CD0
:101E300001D0C4F800A0BDE8F18F38B5040000F06F
:101E400012FDDFF81C140868401C0860DFF8145409
:101E50002868002806D12C60086801280DD100F000
:101E60001DFA0AE0DFF800040068002805D1E06AE6
:101E70002968C96A884200D32C60DFF8F003016842
:101E8000491C0160DFF8E8130A680123E06A834017
:101E90001A430A60211DDFF8DC23E36A1420434360
:101EA00002EB030000F044FC00F0F7FCDFF8B8039D
:101EB000006800280DD02868C06AE16A884208D20C
:101EC0005FF08050DFF8E0140860BFF34F8FBFF37E
:101ED0006F8F31BD2DE9F04104000D000026002C6C
:101EE00007D1502080F31188BFF34F8FBFF36F8F5E
:101EF000FEE7002D07D1502080F31188BFF34F8FEC
:101F0000BFF36F8FFEE7DFF8E8030068002807D013
:101F1000502080F31188BFF34F8FBFF36F8FFEE720
:101F200000F063F8DFF82004D0F800802768EF198C
:101F30002068804507D2206887420BD2B84509D275
:101F40000120060006E02068874201D3B84501D28F
:101F5000012006002760002E04D00021B7EB080006
:101F600000F038FA00F047F8002808D15FF08051FF
:101F7000DFF834241160BFF34F8FBFF36F8FBDE8DC
:101F8000F0811CB5DFF830040190002000900023A0
:101F90008022DFF828140FF2E120FFF7B1FE0400E1
:101FA000012C16D1502080F31188BFF34F8FBFF35F
:101FB0006F8F5FF0FF30DFF8081408600120DFF852
:101FC000A81208600020DFF88013086000F011FC00
:101FD0000AE014F1010F07D1502080F31188BFF3FC
:101FE0004F8FBFF36F8FFEE713BDDFF80403016867
:101FF000491C01607047F8B500250026DFF8F04263
:102000002068002807D1502080F31188BFF34F8F3C
:10201000BFF36F8FFEE700F026FC2068401E2060B3
:102020002068002857D1DFF838020068002852D015
:10203000DFF880130868002827D0C868C06805004A
:1020400015F1180000F09BFB281D00F098FBDFF84D
:1020500020120A680123E86A83401A430A60291D96
:10206000DFF81022EB6A1420434302EB030000F078
:102070005FFBE86ADFF8EC110968C96A8842D7D3C8
:102080000120DFF8D4130860D2E7002D01D000F062
:1020900066F9DFF830733C68002C0CD000F023F8B0
:1020A000002803D00120DFF8B0130860641E002C64
:1020B000F4D100203860DFF8A003006800280AD0BF
:1020C000012006005FF08050DFF8DC120860BFF3EB
:1020D0004F8FBFF36F8F00F0E0FB3000F2BDDFF8F1
:1020E0007C03006870472DE9F0410027DFF800020B
:1020F000006800286ED1DFF850020468641C046098
:10210000002C1CD1DFF8C01208680068002807D036
:10211000502080F31188BFF34F8FBFF36F8FFEE71E
:10212000D1F80080DFF8A40202680A60C0F80080DD
:10213000DFF89C020168491C016000F010F9DFF82B
:102140008082D8F80000844238D3DFF87C12086817
:102150000068002804D15FF0FF30C8F800002DE0CF
:102160000868C068C068050068680600B44202D20A
:10217000C8F8006022E0281D00F001FBA86A0028D2
:1021800003D015F1180000F0FAFA39490A68012362
:10219000E86A83401A430A60291D364AEB6A142014
:1021A000434302EB030000F0C3FAE86A2D490968D3
:1021B000C96A8842C9D301200700C6E72D492948CA
:1021C0000068C26A142042438858022807D30120BD
:1021D000070004E0DFF8EC010168491C0160DFF84A
:1021E00078020068002801D0012007003800BDE80F
:1021F000F0813F480068002804D00120DFF8581221
:1022000008602BE00020DFF85012086018480068D2
:10221000B0FA80F1D1F11F011422164B02FB01F03C
:102220001858002807D1502080F31188BFF34F8F32
:10223000BFF36F8FFEE702FB01F203EB020042687F
:1022400052684260426810F108039A4202D1426823
:10225000526842604068C068024A106070470000DF
:10226000740F0020640F0020800F0020900F0020CA
:102270007C0F0020F80C002010B5040000F03AF8A4
:10228000DFF8E00100680228F8D35FF0805047498A
:102290000860BFF34F8FBFF36F8FEFE770B5002477
:1022A000072C09D2DFF8BC01142101FB04F108441A
:1022B00000F02CFA641CF3E7DFF8AC51280000F0C2
:1022C00025FADFF8A861300000F020FADFF8E4001A
:1022D00000F01CFADFF8980100F018FA344800F01A
:1022E00015FADFF8E4000560DFF88801066070BDCC
:1022F0009C0F002070B5DFF880512868002822D09C
:10230000FFF773FEDFF868613068002801D101240F
:1023100000E00024FFF76FFE002CECD100F0A3FAE0
:10232000F068C668301D00F02AFADFF85001016835
:10233000491E01602868401E286000F0AEFA300097
:1023400000F004F8D7E770BD780F002010B5040046
:10235000206B00F031F9200000F02EF910BDDFF8FD
:10236000682010680068002805D15FF0FF30DFF8B2
:102370005020106007E01068C068C068010048681D
:10238000DFF83C2010607047DFF8F4000068002898
:1023900001D1012007E0DFF8EC000068002801D13E
:1023A000022000E00020704704ED00E004ED00E0B2
:1023B000240F0020FC0E0020980F0020E83E0008AB
:1023C000940F0020840F0020680F00206C0F002065
:1023D0008C0F00202DE9F04105000C001F48076814
:1023E000DFF87C80D8F80000001D00F0C8F9002854
:1023F00008D1D8F8000024490A680123C06A834044
:102400009A430A6015F1010F08D1002C06D0D8F8C4
:102410000000011D1D4800F08BF91AE0E8190600C4
:10242000D8F800004660BE4207D2D8F80000011D6F
:102430001048006800F088F90BE0D8F80000011D92
:102440001348006800F080F9124801688E4200D2FB
:102450000660BDE8F0810000880F0020780F0020A2
:10246000640F0020F80C0020D40E0020E80E00209D
:10247000100F00206C0F0020700F0020740F002040
:10248000800F00209C0F00207C0F0020240F0020D4
:10249000680F0020940F00202DE9F84F04005FF032
:1024A0000008FFF7A2FDDFF84892D9F800000028E5
:1024B00001D100F0BBF8DFF83CA2DAF800000442DA
:1024C00069D1002C15D08C480068041914F0070F4E
:1024D0000FD014F1080014F00704041B14F0070FC8
:1024E00007D0502080F31188BFF34F8FBFF36F8F59
:1024F000FEE7002C4FD0DFF804B2DBF80000A0426A
:1025000049D37F480600006805006868A04205D2EC
:102510002868002802D02E002D68F6E7D9F80000C0
:10252000854238D074483168026811448846296869
:102530003160006840006968091B884215D205EBCC
:102540000400070017F00700002807D0502080F390
:102550001188BFF34F8FBFF36F8FFEE76868001BD2
:1025600078606C60380000F092F8DBF80010686862
:10257000091ACBF800106348DBF80010026891429A
:1025800002D2DBF8001001606968DAF8000001434C
:10259000696000202860FFF72EFD18F00700002872
:1025A00007D0502080F31188BFF34F8FBFF36F8F98
:1025B000FEE74046BDE8F28F70B504002600002C0F
:1025C00033D04D48006840420644350049496868A8
:1025D0000A68104207D1502080F31188BFF34F8F53
:1025E000BFF36F8FFEE72868002807D0502080F3E4
:1025F0001188BFF34F8FBFF36F8FFEE768680A68DB
:10260000104212D0286800280FD16A6808688243F7
:102610006A60FFF7EAFC39490A68686882180A604C
:10262000280000F034F8FFF7E6FC70BD70B44FF4FA
:1026300040623548010011F0070F04D0C91DC908D8
:10264000C900521A82180B002D4803600024446010
:10265000D41829480068241AE408E400244D2C60AA
:1026600000202E68706000202E6830601800261A46
:1026700046602D6805604568224E356045681F4EEE
:1026800035605FF000451B4E356070BC704730B45C
:102690001B4A1168814201D21268FAE7140051689E
:1026A0002144814204D153684168CB185360100023
:1026B0000300416819441568A94210D10C491468F7
:1026C0000D68AC4208D04468116849680C19446030
:1026D00011680968016004E00968016001E011689F
:1026E0000160824200D0106030BC704700000000E2
:1026F000400F00204C0F0020F03E0008440F002047
:10270000380F0020480F00200C00002010F10801B5
:1027100041605FF0FF31816010F10801C16010F18C
:1027200008010161002101607047002101617047CB
:1027300042684A6093688B60936859609160086151
:1027400003685B1C0360704710B40B6813F1010F42
:1027500001D1026907E010F1080254682468A3421D
:1027600001D35268F9E754684C604C68A1608A60F4
:10277000516008610468641C046010BC704701006B
:1027800008698A684B689A604A688B685A60426830
:102790008A4201D18A68426000220A610268521EA0
:1027A0000260006870470000001F5FF080730360E4
:1027B000001F4B085B000360001F0FF20D03036056
:1027C00014380260203870474948006810F1010F42
:1027D00007D0502080F31188BFF34F8FBFF36F8F66
:1027E000FEE7502080F31188BFF34F8FBFF36F8F48
:1027F000FEE7E0B53F4801780191FF2101700178C3
:102800008DF800109DF8001011F050013A4A117037
:102810003A4907220A609DF80020120608D50A6886
:10282000521E0A609DF8002052008DF80020F2E749
:102830000A6812020A600A6812F4E0620A600199EA
:1028400001702F48016851F470010160016851F076
:102850007041016000F058F800202549086000F040
:102860009AF800200EBD502080F31188BFF34F8FDF
:10287000BFF36F8F1E490A68521C0A60096801295C
:102880000AD120490968090606D080F31188BFF3F0
:102890004F8FBFF36F8FFEE7704715490868002818
:1028A00007D1502080F31188BFF34F8FBFF36F8F94
:1028B000FEE70868401E08600868002802D1002072
:1028C00080F31188704780B5502080F31188BFF3E2
:1028D0004F8FBFF36F8FFFF706FC002803D05FF028
:1028E000805008490860002080F3118801BD000075
:1028F0000000002000E400E0A40F00205C0F002096
:1029000020ED00E004ED00E0064800684FF47A7125
:10291000B0FBF1F0401E044908600720034908603D
:10292000704700BF0400002014E000E010E000E069
:10293000EFF30980BFF36F8F1D4B1A6820E9F00F8A
:10294000106008B54FF0500080F31188BFF34F8F2F
:10295000BFF36F8FFFF74DFC4FF0000080F311883D
:10296000BDE8084019680868B0E8F00F80F30988EE
:10297000BFF36F8F70470E4B19680868B0E8F00F0F
:1029800080F30988BFF36F8F4FF0000080F3118848
:102990004EF00D0E704707480068006880F3088805
:1029A00062B661B6BFF34F8FBFF36F8F00DF0000D9
:1029B000640F002008ED00E02DE9F8430400002535
:1029C0002078C0076BD5DFF80806016811F00C010C
:1029D000042907D0016811F00C0108290CD1006806
:1029E000C00309D5DFF8E4050068800357D56068A7
:1029F000002854D10120BDE16068B0F5803F06D1C8
:102A0000DFF8C805016851F48031016026E0606894
:102A100000280AD1DFF8B405016831F48031016083
:102A2000016831F48021016018E06068B0F5A02FE2
:102A30000AD1DFF89805016851F48021016001682E
:102A400051F48031016009E0DFF88005016831F45C
:102A500080310160016831F48021016060680028E4
:102A60000ED0FEF78BF90500DFF8600500688003E3
:102A700015D4FEF783F9401B6528F5D3032079E1CF
:102A8000FEF77CF90500DFF844050068800306D5F1
:102A9000FEF774F9401B6528F5D303206AE120781E
:102AA000800750D5DFF82805016811F00C0F07D01A
:102AB000016811F00C01082914D10068C00311D479
:102AC000DFF808050168890704D52169012901D0CB
:102AD00001204FE1016831F0F801626951EAC20159
:102AE000016030E0206900281AD00120DFF8F014DE
:102AF0000860FEF743F90500DFF8D0040168890794
:102B000006D4FEF73BF9401B0328F5D3032031E13F
:102B1000016831F0F801626951EAC201016012E016
:102B20000020DFF8BC140860FEF728F90500DFF884
:102B30009C040068800706D5FEF720F9401B032897
:102B4000F5D3032016E1207800072CD5A0690028D2
:102B500016D00120DFF88C140860FEF70FF905008D
:102B6000DFF878040068800706D4FEF707F9401BF9
:102B70000328F5D30320FDE0012000F013FA12E052
:102B80000020DFF860140860FEF7F8F80500DFF8B1
:102B90004C040068800706D5FEF7F0F8401B0328B8
:102BA000F5D30320E6E02078400740F18880002636
:102BB000DFF834743868C0000AD4386850F08050A8
:102BC0003860386810F080500090009801200600AE
:102BD000DFF81884D8F80000C00513D4D8F8000036
:102BE00050F48070C8F80000FEF7C8F80500D8F867
:102BF0000000C00506D4FEF7C1F8401B6528F6D3D7
:102C00000320B7E0E068012806D1DFF8E40301689B
:102C100051F00101016025E0E06800280AD1DFF8E9
:102C2000D0030168490849000160016831F00401DE
:102C3000016017E0E06805280AD1DFF8B4030168F5
:102C400051F004010160016851F00101016009E0E7
:102C5000DFF89C030168490849000160016831F010
:102C600004010160E068002810D0FEF787F8050035
:102C7000DFF87C030068800719D4FEF77FF8401B5B
:102C800041F289318842F3D3032073E0FEF776F8EE
:102C90000500DFF85C030068800708D5FEF76EF8D2
:102CA000401B41F289318842F3D3032062E03000B7
:102CB000C0B2012803D1386830F080503860E06934
:102CC000002856D0DFF80873386810F00C00082888
:102CD0004DD0E069022837D1DFF818930020C9F8F9
:102CE0000000FEF74BF80600DFF8E082D8F800009D
:102CF000800106D5FEF742F8801B0328F4D3032099
:102D000038E0206AB0F5803F05D1396831F40031F0
:102D1000A06801433960396831F47411206A0143B5
:102D2000606A014339600120C9F80000FEF726F807
:102D30000500D8F8000080011BD4FEF71FF8401BE7
:102D40000328F6D3032015E00020DFF8A81208605E
:102D5000FEF714F80500DFF874020068800108D55A
:102D6000FEF70CF8401B0328F5D3032002E00120F6
:102D700000E00020BDE8F2832DE9F04104000D00E1
:102D80000026DFF87472386810F00700A8420BD2F2
:102D90003868C008C00028433860386810F0070061
:102DA000A84201D001209BE02078800707D5DFF8FA
:102DB00020120A6832F0F002A06802430A6020780C
:102DC000C00758D56068012806D1DFF80002006806
:102DD000800311D4012083E06068022806D1DFF867
:102DE000EC010068800107D4012079E07748006891
:102DF000800701D4012073E0DFF8D481D8F80010F7
:102E00008908890060680143C8F80010FDF7B6FF23
:102E10000600606801280ED1D8F8000010F00C0000
:102E2000042828D0FDF7AAFF801B41F2893188428F
:102E3000F2D3032054E0606802280ED1D8F80000D5
:102E400010F00C00082816D0FDF798FF801B41F207
:102E500089318842F2D3032042E0D8F8000010F014
:102E60000C0F08D0FDF78AFF801B41F289318842A0
:102E7000F3D3032034E0386810F0070085420BD20A
:102E80003868C008C00028433860386810F0070070
:102E9000A84201D0012023E02078400706D54C4904
:102EA0000A6832F4E062E06802430A6020780007B2
:102EB00007D54748016831F46051226951EAC201DF
:102EC000016000F00FF84D49414A1268C2F3031245
:102ED000895CC84040490860002000F099F8002053
:102EE000BDE8F081F0B585B001A84549102200F099
:102EF000D9F844480088ADF80000002000210022E5
:102F000000230025324E346814F00C07042F02D041
:102F1000082F02D01BE02F481AE001A8C4F3834712
:102F2000C05D0300E0030CD568463668C6F3404632
:102F3000805D0100274800FB03F0B0FBF1F00200C8
:102F400003E0314800FB03F00200100000E02148DC
:102F500005B0F0BD20480068704780B5FFF7FAFF64
:102F60002A491B4A1268C2F30222895CC84002BD8A
:102F70000F220260164A136813F0030343601368BC
:102F800013F0F0038360136813F4E063C360126806
:102F9000D20812F4E0620261174A126812F00702C6
:102FA0000A60704781B00C490968C9084FF47A7209
:102FB000B1FBF2F101FB00F1009100BF00994A1E44
:102FC00000920029F9D101B07047000000100240C2
:102FD0000410024000127A00040000202410024075
:102FE00000004242800442421C1002400070004037
:102FF000201002406000424200200240943E00083F
:10300000843E00084A14000800093D00E03E000824
:103010002DE9F04387B0040000250026002221009E
:103020001C20FEF786FA1C20FEF798FA1A48016861
:1030300051F001010160006810F00100009000985B
:1030400001A902A8FFF794FFFFF787FF4700134885
:10305000B7FBF0F8B8F10108DFF844905FF080406A
:10306000C9F8000040F2E730C9F80C00C9F8048044
:103070000020C9F810000020C9F80800484600F0F8
:1030800055F8002803D1484600F06CF800E0012014
:1030900007B0BDE8F08300001C10024040420F0062
:1030A000080E0020103A07D330B4B1E83810103AB7
:1030B000A0E83810F9D230BC530724BFB1E808109B
:1030C000A0E8081044BF51F8043B40F8043BD20785
:1030D00024BF31F8022B20F8022B44BF0B78037079
:1030E0007047121F17D35B0009D151F8043B20F839
:1030F000023B1B0C121F20F8023BF6D20BE051F8EA
:10310000043B00F8013B1B0A20F8023B1B0C121F7A
:1031100000F8013BF3D238BF121D521E24BF11F834
:10312000013B00F8013BF8D87047000010B50400DF
:10313000002C01D1012014E094F83D00002805D1B5
:10314000002084F83C00200000F09AFA022084F865
:103150003D00211D206800F088F9012084F83D0021
:10316000002010BD01000868C06850F001000A6826
:10317000D0600868006850F001000A681060002004
:10318000704710B50400002C01D1012014E094F820
:103190003D00002805D1002084F83C002000FDF708
:1031A000BBFD022084F83D00211D206800F05DF980
:1031B000012084F83D00002010BD38B504000D004A
:1031C00001222900206800F04DFA2068DFF8201065
:1031D000884205D12068406C50F400402168486462
:1031E0002068006850F0010021680860002032BDAE
:1031F000002C014010B504002068006980071AD532
:103200002068C068800716D57FF002002168086139
:10321000012020772068806910F0030F03D0200080
:1032200000F02FFA05E0200000F02CFA200000F05A
:103230002AFA002020772068006940071AD5206804
:10324000C068400716D57FF004002168086102209D
:1032500020772068806910F4407F03D0200000F0C0
:1032600010FA05E0200000F00DFA200000F00BFA43
:10327000002020772068006900071AD52068C06800
:10328000000716D57FF00800216808610420207728
:103290002068C06910F0030F03D0200000F0F1F99E
:1032A00005E0200000F0EEF9200000F0ECF900202D
:1032B000207720680069C0061AD52068C068C0065B
:1032C00016D57FF01000216808610820207720685B
:1032D000C06910F4407F03D0200000F0D2F905E06F
:1032E000200000F0CFF9200000F0CDF90020207779
:1032F00020680069C0070AD52068C068C00706D5E5
:103300007FF0010021680861200000F0DFFB2068E9
:10331000006900060AD52068C068000606D57FF05F
:10332000800021680861200000F0DAFB2068006955
:1033300040060AD52068C068400606D57FF04000E8
:1033400021680861200000F0CCFB2068006980063D
:103350000AD52068C068800606D57FF02000216865
:103360000861200000F0BEFB10BD70B504000D0028
:10337000160094F83C00012801D1022074E00120DD
:1033800084F83C00022084F83D003000002806D07C
:1033900004281BD0082831D00C2846D05DE0290035
:1033A000206800F095F82068806950F008002168D6
:1033B00088612068806930F0040021688861206895
:1033C0008169286901432068816146E029002068FD
:1033D00000F0AEF82068806950F4006021688861D0
:1033E0002068806930F48060216888612068806985
:1033F000296950EA0120216888612EE029002068AF
:1034000000F0CDF82068C06950F008002168C8615C
:103410002068C06930F004002168C8612068C16973
:10342000286901432068C16117E02900206800F085
:10343000EAF82068C06950F400602168C86120681B
:10344000C06930F480602168C8612068C06929695A
:1034500050EA01202168C861FFE7012084F83D009F
:10346000002084F83C00002070BD10B400220368E6
:10347000794CA04208D0B0F1804F05D0774A9042F5
:1034800002D0774A904203D133F070034A68134365
:10349000A04208D0B0F1804F05D0704A904202D0CF
:1034A0006F4A904203D133F44073CA68134333F038
:1034B00080034A69134303608A68C2620A688262B1
:1034C000A04201D10A6902630122426110BC704727
:1034D000F0B5002600275FF0000C026A5208520087
:1034E0000262056A4368846934F07004A408A40089
:1034F0000A68144335F002058A681543DFF858E17D
:10350000704505D135F00805CA68154335F0040546
:10351000704507D133F4807333F400734A69134361
:103520008A691343436084614A6842630562F0BD5F
:10353000F0B4002500260027026A32F01002026271
:10354000046A4268836933F4E04333F44073D1F88A
:1035500000C053EA0C2334F02004D1F808C054EA28
:103560000C14DFF8F4C0604506D134F08004CD6857
:1035700054EA051434F04004604509D132F4806205
:1035800032F400624D6952EA85028D6952EA850281
:10359000426083614D6885630462F0BC7047F0B49B
:1035A000002600275FF0000C026A32F4807202628B
:1035B000056A4368C46934F07004A408A4000A686A
:1035C000144335F400758A6855EA0225224A904270
:1035D00006D135F40065CE6855EA062535F48065D8
:1035E000904209D133F4805333F400534A6953EACB
:1035F00002138A6953EA02134360C4614A68C263D2
:103600000562F0BC7047F0B4002200240026036A73
:1036100033F480530362056A4768C36933F4E043B7
:1036200033F44073D1F800C053EA0C2335F400554D
:10363000D1F808C055EA0C35DFF81CC0604504D14C
:1036400037F480474A6957EA82174760C3614A687E
:1036500002640562F0BC7047002C01400004004089
:103660000008004070B4002401258D40036AAB437C
:103670000362066A12FA01F31E43066270BC7047C9
:10368000704770477047704710B58AB000F02CFA49
:1036900000F051F800F01CF900F0B4F800F08DF8DB
:1036A000DFF8E84300212000FFF787FD0421200018
:1036B000FFF783FD08212000FFF77FFD0C2120008C
:1036C000FFF77BFD002200212000FDF797FE00227E
:1036D00004212000FDF792FE002208212000FDF7C2
:1036E0008DFE00220C212000FDF788FE00F056F927
:1036F000DFF89C432000FDF756FB00212000FCF77B
:1037000012FF05A8DFF88C131422FFF7CBFC002171
:1037100005A800F00BFAE04908606846DF4914226A
:10372000FFF7C0FC0021684600F000FADC490860A1
:1037300000F0F7F9FEE700B58FB0012005905FF4C7
:1037400080300690002107910121099102210C91FE
:103750000D905FF4E0100E9005A8FFF72DF90028FA
:1037600003D0CC21CF4800F0BAF90F2000900220FE
:103770000190002002904FF480600390002004909C
:1037800002216846FFF7F8FA002803D0DA21C5487D
:1037900000F0A5F9FFF7DEFB4FF47A71B0FBF1F012
:1037A000FDF7E3FE0420FDF7E6FE00220F215FF0A7
:1037B000FF30FDF7BEFE0FB000BD80B5B448BA497A
:1037C000016012214160002181600021C1605FF42D
:1037D000402101615FF4801141610021816101217B
:1037E000C161012101620121416200218162002148
:1037F000C162FCF77BFC002803D0FB21A94800F044
:103800006EF901BD18B589B0A04CA8482060002011
:1038100060600020A06041F61F40E0600020206151
:103820000020A0612000FFF7ACFC002804D040F28B
:103830000F119C4800F053F90020009000200190E7
:103840006946200000F092F9002804D04FF48B71F3
:10385000944800F044F9602002900020039000207A
:10386000049000200690002202A92000FFF77DFDB1
:10387000002804D040F21F118A4800F030F90422D9
:1038800002A92000FFF771FD002804D04FF49271C7
:10389000844800F024F9082202A92000FFF765FD02
:1038A000002804D040F229117E4800F018F90C22BB
:1038B00002A92000FFF759FD002804D04FF49771AA
:1038C000784800F00CF92000FDF737FA0AB010BD77
:1038D00078B585B07648016851F020010160016833
:1038E00011F0200104910499016851F00401016074
:1038F000016811F0040104910499016851F0080174
:103900000160006810F0080004900498694C0022DF
:103910004FF420712000FDF76BFF49F22405664E3D
:10392000002229003000FDF763FF102000900020E6
:1039300001900120029069462000FDF73BFE4FF404
:10394000207000900120019002200290022003903C
:1039500069462000FDF72EFE0B200090002001900C
:103960000120029069463000FDF724FE00950120F9
:103970000190022002900220039069463000FDF77A
:1039800019FE4FF4807000900020019002200290F8
:1039900069462000FDF70EFE06B070BD2DE9F0412E
:1039A00092B03B4D454828630A20296B48600820A7
:1039B000296B08610420296B88600020296BC8608E
:1039C0003F4868630A20696B48600820696B08619A
:1039D0000420696B88600020696BC8600AA83949B7
:1039E0002022FFF75FFB03200590002006900120B6
:1039F00007900A98C0F34F3000900A98C00080B238
:103A000050F0040001907FF0604808260027B7427C
:103A10000AD20AA850F827000A99C943484004006E
:103A200014EA08087F1CF2E75FEAC8084046000C69
:103A300002901FFA88F050F00200039000200490DA
:103A4000012008900E20099069462800FCF7FDFB34
:103A500012B0BDE8F08170B5040001251A4EFEF7E2
:103A60003EFB306029003000FEF734FAFDF7FFFB23
:103A7000F8E738B50400064D2800FDF706FA2800DF
:103A8000FDF72EFB00F000F9F5E70000C80D00205F
:103A9000840D00205C3E0008500F0020703E00089E
:103AA000540F00204C3D0008006400400008004016
:103AB0001810024000080140000C0140B80E002020
:103AC000700E0020F43D0008580F002010B50400CF
:103AD0002068B0F1804F01D100F0D8F810BDFEE7AA
:103AE000704770477047000080B50748016851F083
:103AF000100101600320FDF716FD0020FFF788FA92
:103B0000FDF776F8002002BD0020024001000020F1
:103B10000A0012B2842A03D00A0012B2D21C101872
:103B2000704780B5FEF72DFA002002BD3EB50400B7
:103B30000D00B4F90800FFF7E9FF02A90191009018
:103B40002B00226992B221686068FEF7D9F801283B
:103B500001D0002000E002983EBD80B5FEF714FCC5
:103B6000012801D0FEF7AFFE01BD0000020092F86F
:103B70003C00012801D1022024E0012082F83C0011
:103B8000022082F83D001068406830F07000136831
:103B90005860106843680868034310684360106801
:103BA000806830F080001368986010688368486807
:103BB000034310688360012082F83D00002082F8F2
:103BC0003C0000207047000070B504002B4D01221E
:103BD00020212800FDF70CFE00224FF48051280020
:103BE000FDF706FE264D28686430286028686528A1
:103BF00001DB64202860234E2A6800213000FDF795
:103C0000FDFB642204213000FDF7F8FB2A6808213F
:103C10003000FDF7F3FB64220C213000FDF7EEFBD2
:103C200070BD70B50400154D002220212800FDF75D
:103C3000DFFD00224FF480512800FDF7D9FD104D23
:103C40002868643828602868002801D5002028608A
:103C50000C4E2A6800213000FDF7D0FB64220421BD
:103C60003000FDF7CBFB2A6808213000FDF7C6FBCA
:103C700064220C213000FDF7C1FB70BD000C014037
:103C8000A00F0020C80D00207047000003490A68FB
:103C90000348007882180A60704700BF600F002058
:103CA000080000200F49086850F0010008600E4A23
:103CB00013680E48034013600B680D4803400B6007
:103CC000086830F480200860106830F4FE0010604E
:103CD0005FF41F00074908605FF000600649086054
:103CE0007047000000100240041002400000FFF87E
:103CF000FFFFF6FE0810024008ED00E07047FEE707
:103D0000FEE7FEE7FEE7704780B5FFF726FF01BD3F
:103D100080B50C48FCF792FC01BD80B50948FCF762
:103D20008DFC01BD80B50748FCF788FC01BD80B55E
:103D30000448FCF783FC01BD80B50348FFF75AFA3D
:103D400001BD0000840D0020080E0020463A5C4EA4
:103D500065772053616C652053797374656D5C439E
:103D60006F64655C43656C6C5C436F72655C537239
:103D7000635C6D61696E2E630000000030B450F822
:103D8000041B79B10268436802440830DC0744BF71
:103D9000A9F10104E31852F8045B43F8045B091F1E
:103DA000F9D1ECE730BC704710B5074979441831B8
:103DB000064C7C44163404E00A68081D1144884708
:103DC0000146A142F8D110BD080000002800000003
:103DD000E7CDFFFF9C0F00000C000020000000005A
:103DE0009DFFFFFF0C000000E40000000000002029
:103DF00000000000000000000100000002000000C0
:103E000003000000040000000500000006000000A0
:103E10000700000000F00DF8002801D0FFF7C4FFF4
:103E2000AFF300800020AFF30080FFF72DFC00F01F
:103E300002F80120704700F001B80000074638463C
:103E400000F002F8FBE7000080B5AFF30080024A03
:103E500011001820ABBEFBE726000200B43E0008AC
:103E6000733A00080000000000000000800000001D
:103E7000D83E0008573A0008030000000000000088
:103E80000001000002030405060708090A0B0C0DD7
:103E90000E0F1010000000000000000001020304DB
:103EA000060708090148804701480047A53C00086B
:103EB000C13E000864656661756C745461736B0083
:103EC000AFF30080AFF30080FFF7A4FFAAAAAAAA6D
:103ED00000A24A04010000007461736B310000000D
:103EE000000000000102030449444C4500000000AA
:103EF00008000000FFF7FEBFFFF7FEBFFFF7FEBFA1
:103F0000FFF7FEBFFFF7FEBFFFF7FEBFFFF7FEBFE5
:103F1000FFF7FEBFFFF7FEBFFFF7FEBFFFF7FEBFD5
:103F2000FFF7FEBFFFF7FEBFFFF7FEBFFFF7FEBFC5
:103F3000FFF7FEBFFFF7FEBFFFF7FEBFFFF7FEBFB5
:103F4000FFF7FEBFFFF7FEBFFFF7FEBFFFF7FEBFA5
:103F5000FFF7FEBFFFF7FEBFFFF7FEBFFFF7FEBF95
:103F6000FFF7FEBFFFF7FEBFFFF7FEBFFFF7FEBF85
:103F7000FFF7FEBFFFF7FEBFFFF7FEBFFFF7FEBF75
:0C3F8000FFF7FEBFFFF7FEBFFFF7FEBF1C
:0400000508003EC1F0
:00000001FF
