:020000040800F2
:1000000010040020113D00084D3B00084F3B000844
:10001000513B0008533B0008553B0008000000001E
:10002000000000000000000000000000A33A0008EB
:10003000573B0008000000005D3A0008593B0008EB
:10004000613D0008653D0008693D00086D3D000800
:10005000713D0008753D0008793D00087D3D0008B0
:10006000813D0008853D0008893D00088D3D000860
:10007000913D0008953D0008993D00089D3D000810
:10008000A13D0008A53D0008A93D0008613B00080E
:100090006B3B0008753B00087F3B0008AD3D000846
:1000A000B13D0008B53D0008B93D0008BD3D000860
:1000B000893B0008C13D0008C53D0008C93D000856
:1000C000CD3D0008D13D0008D53D0008D93D0008D0
:1000D000DD3D0008E13D0008E53D0008E93D000880
:1000E000ED3D0008F13D0008F53D0008F8B50400BD
:1000F000002500260027002C01D10120A8E094F85B
:100100003C00002805D1002084F83D00200000F0CC
:1001100071FD022084F83C00206800687FF0020135
:100120000840216808602068006850F001002168DC
:10013000086000F0F6FD060020684068C0070CD497
:1001400000F0EFFD801B0B28F6D3032084F83C0061
:10015000002084F83D0003207AE020684068C00752
:1001600069D5A069012802D157F0800702E07FF02D
:1001700080000740E069012802D157F0400702E003
:100180007FF040000740206A012802D157F0200785
:1001900002E07FF020000740606A012802D157F09A
:1001A000100702E07FF010000740A06A012802D18A
:1001B00057F0080702E07FF008000740E06A0128D6
:1001C00002D157F0040702E07FF0040007402068E6
:1001D00000687FF0FC010840384321680860A0688F
:1001E000E168084321690843616908436168491E61
:1001F00008432168C8612068006840084000216801
:10020000086000F08EFD060020684068C0070CD52D
:1002100000F087FD801B0B28F6D3032084F83C00F8
:10022000002084F83D00032012E020684068C007E9
:1002300001D401200500012D06D1002020640120F9
:1002400084F83C00002003E0042084F83C000120F6
:10025000F2BD30B40200002301204C69A04003002D
:100260001068D0F8000230F47C504C6A50EA042048
:1002700050F001001468C4F800021068D0F81C02A5
:1002800098431468C4F81C02C86900281CD110687F
:10029000D0F80C0298431468C4F80C0210684C693A
:1002A00000EBC400CC684D68ADB255EA0444C0F818
:1002B000404210684C6900EBC4008C680D68ADB218
:1002C00055EA0444C0F84442C86901281CD11068AA
:1002D000D0F80C0218431468C4F80C0210684C697A
:1002E00000EBC4000C684D68ADB255EA0444C0F898
:1002F000404210684C6900EBC4008C68CD68ADB218
:1003000055EA0444C0F844428869002807D11068BF
:10031000D0F8040298431468C4F8040206E0106898
:10032000D0F8040218431468C4F8040208690028CD
:1003300007D11068D0F8140298431468C4F8140266
:1003400006E01068D0F8140218431468C4F81402C8
:10035000086A012806D11068D0F81C0218431468F6
:10036000C4F81C021068D0F800024008400014686D
:10037000C4F80002002030BC704710B40100042211
:1003800008688068400108D408688068000104D4C7
:1003900008688068C00040F1C78091F83D000128DE
:1003A00001D10220C4E0012081F83D000868806886
:1003B000400102D50020020008E0086880680001C2
:1003C00002D50120020001E00220020008681301AA
:1003D0001844D0F8800110F001000B681401234488
:1003E000C3F88001086B8068002811D108681301E8
:1003F0001844D0F880010B6B1B680C6BE46854EA5E
:10040000435318430B6814012344C3F8800113E0DD
:10041000086813011844D0F880010B6B5B680C6B03
:10042000A46854EAC3030C6BE468234318430B68C5
:1004300014012344C3F88001086B007C10F00F0006
:100440000B6B1861086813011844D0F88401000987
:1004500000010B6814012344C3F8840108681301E8
:100460001844D0F884010B6B1B6918430B68140106
:100470002344C3F88401086BC07D0B6B9B7D1B0478
:1004800053EA00600B6B5B7D50EA03200B6B1B7D16
:1004900018430B6814012344C3F88801086BC07E1D
:1004A0000B6B9B7E1B0453EA00600B6B5B7E50EA78
:1004B00003200B6B1B7E18430B6814012344C3F805
:1004C0008C0191F83C00222804D0322806D0622802
:1004D00008D00BE0422081F83C000AE0522081F86D
:1004E0003C0006E0722081F83C0002E0122081F816
:1004F0003C0000200864002081F83D0008681301DA
:100500001844D0F8800150F001000B681401234416
:10051000C3F880010868406940F40F4050F00100C2
:100520000B685861002003E0042081F83C000120A2
:1005300010BC70470200C9B2002911D192F83C00EA
:1005400022280BD092F83C00422807D092F83C00B9
:10055000622803D092F83C00722801D102206FE09B
:10056000C9B2012911D192F83C0032280BD092F87F
:100570003C00522807D092F83C00622803D092F841
:100580003C00722801D102205AE092F83D00012877
:1005900001D1022054E0012082F83D00C9B20029B7
:1005A00018D192F83C00122804D0322806D05228E4
:1005B00008D00BE0422082F83C0023E0622082F861
:1005C0003C001FE0722082F83C001BE0222082F8F1
:1005D0003C0017E092F83C00122804D0222806D0F4
:1005E000422808D00BE0522082F83C000AE062204A
:1005F00082F83C0006E0722082F83C0002E03220E3
:1006000082F83C00002010641068406940F40F40FC
:1006100050F0010013685861002082F83D00C9B213
:10062000002906D11068406950F00A00136858612B
:1006300005E01068406950F05000136858610020D0
:1006400070472DE9F04104000025002600275FF0E7
:1006500000082068C068000910F00100050020684B
:100660004069C0F3C00010F001000600002D06D064
:10067000002E04D058F4007810202168C86020684B
:100680000069000910F00100050020684069C0F30E
:10069000801010F001000600002D06D0002E04D0BE
:1006A00058F4806810202168086120684069C007FC
:1006B00044D520688068984908409749884201D10C
:1006C000012500E00025206880689449084093498E
:1006D000884201D1012600E0002620688068904908
:1006E00008408F49884201D1012700E0002756EADF
:1006F00005003843002821D020688068400810F0A9
:100700000100050020688068400A10F00100060022
:100710002068806810F00100070056EA05003843A1
:10072000002803D0200000F003F901E058F400682D
:10073000206880687B490843216888602068C06819
:1007400010F00300050020684069C0F3400010F07D
:1007500001000600002D05D0002E03D0002120004E
:1007600000F015F92068006910F00300050020680A
:100770004069C0F3001010F001000600002D05D004
:10078000002E03D00121200000F001F9206C58EA6E
:10079000000020642068806910F0010005002068D6
:1007A0004069C0F3002010F0010006002068406995
:1007B000C0F3C03010F001000700002D07D0002E5C
:1007C00005D0002F03D0206C50F001002064206879
:1007D0008069400810F00100050020684069C0F3FE
:1007E000402010F00100060020684069C0F3C030CE
:1007F00010F001000700002D07D0002E05D0002FBB
:1008000003D0206C50F002002064206880698008CA
:1008100010F00100050020684069C0F3802010F04E
:100820000100060020684069C0F3C03010F00100EC
:100830000700002D07D0002E05D0002F03D0206C1C
:1008400050F0040020642068806910F0700F01D11E
:10085000012500E0002520684069C0F3C02010F0A9
:100860000100060020684069C0F3C03010F00100AC
:100870000700002D3BD1002E39D0002F37D0206843
:10088000806910F070000500280010280AD0202888
:100890000DD0302810D0402813D0502816D0602812
:1008A00019D01DE0206C50F00800206418E0206C86
:1008B00050F01000206413E0206C50F02000206401
:1008C0000EE0206C50F04000206409E0206C50F0F5
:1008D0008000206404E0206C50F480702064FFE706
:1008E000206880697FF07001084021688861206C71
:1008F00000280ED0042021684860012084F83C00C4
:10090000206840690849084021684861200000F0DB
:100910000EF8BDE8F08100000100000400010008AD
:100920000000011009050100A470FFFF7047704727
:1009300010B5040020684069400840002168486103
:1009400094F83C00122805D12068406930F40F402B
:100950002168486194F83C00422804D0522806D00F
:10096000722808D00BE0222084F83C000AE03220F4
:1009700084F83C0006E0622084F83C0002E001209C
:1009800084F83C002000FFF7D1FF002010BDF8B52F
:1009900004000D0000260027EDB2002D02D1606B8F
:1009A000070001E0A06B07002068EDB229010844B0
:1009B000D0F8B00110F00400B860B868002808D181
:1009C0002068EDB229010844D0F8B001400D38602C
:1009D00007E02068EDB229010844D0F8B001C00852
:1009E00078602068EDB229010844D0F8B00110F019
:1009F0000200F8602068EDB229010844D0F8B40183
:100A000010F00F003861EDB23D622068EDB22901AF
:100A10000844D0F8B401C0F30720F8612068EDB2B3
:100A200029010844D0F8B80138752068EDB22901D1
:100A30000844D0F8B801000A78752068EDB22901A1
:100A40000844D0F8B801000CB8752068EDB229014F
:100A50000844D0F8B801000EF8752068EDB22901FD
:100A60000844D0F8BC0138762068EDB2290108446A
:100A7000D0F8BC01000A78762068EDB2290108445C
:100A8000D0F8BC01000CB8762068EDB2290108440A
:100A9000D0F8BC01000EF876EDB2002D0AD120206E
:100AA0002168C860206840697FF00A010840216819
:100AB000486109E0202021680861206840697FF0D2
:100AC000500108402168486194F83C000600222E3D
:100AD00001D0322E05D12068406930F40F402168E2
:100AE0004861EDB2002D18D194F83C00422804D0A2
:100AF000622806D0722808D00BE0122084F83C004F
:100B000023E0322084F83C001FE0522084F83C00AF
:100B10001BE0012084F83C0017E094F83C005228C8
:100B200004D0622806D0722808D00BE0122084F886
:100B30003C000AE0222084F83C0006E0422084F8D1
:100B40003C0002E0012084F83C00200000F095F910
:100B50000020F2BD80B55F48006850F001005D499B
:100B600008605C48006810F00100009000985A4846
:100B7000006850F08050584908605748006810F0ED
:100B8000805000900098032000F03CFB00220021E0
:100B90007FF00B0000F03CFB002200217FF00A00F8
:100BA00000F036FB002200217FF0090000F030FB4E
:100BB000002200217FF0040000F02AFB0022002127
:100BC0007FF0030000F024FB00220F217FF00100E2
:100BD00000F01EFB00220F215FF0FF3000F018FB39
:100BE0003E490968080030F0E06050F000703B4971
:100BF000086001BD10B586B00400206838498842FD
:100C000041D13548006850F00070334908603248DF
:100C1000006810F00070009000984FF400600190A0
:100C2000002002900020039001A92E4800F032FB22
:100C30004FF480500190022002900320049001A9FB
:100C4000284800F027FB00220521132000F0E0FADD
:100C5000132000F0F0FA00220521142000F0D8FA49
:100C6000142000F0E8FA00220521152000F0D0FA47
:100C7000152000F0E0FA00220521162000F0C8FA45
:100C8000162000F0D8FA06B010BD81B00168164AEF
:100C900091420BD11049096851F004010E4A1160CC
:100CA0000D49096811F004010091009901B07047E5
:100CB0001FB5040020680C4988420AD14FF47070B7
:100CC000009002200190022003906946074800F03E
:100CD000E1FA1FBD181002401C1002400400014040
:100CE000006400400008014000080040000C014082
:100CF00080B50D48006850F010000B4908600320D3
:100D000000F080FA002000F059FCFFF723FF0020DC
:100D100002BD0748006805490978081804490860B9
:100D20007047034800687047002002400800002018
:100D3000C412002010B504000020DFF890134860B2
:100D40000020DFF8881308600020DFF880130872A5
:100D50000120DFF8781308750020DFF8701388751C
:100D60000020DFF86813C8750120DFF860134875AC
:100D70003220DFF8581308640FF24920DFF84C13D3
:100D800088610FF25920DFF8441348620FF24D20BA
:100D9000DFF8381308620FF23920DFF83013C8612A
:100DA00000F077F910BD38B50400C848007A012872
:100DB00016D10020C54908724FF48061C44800F084
:100DC000C6FB0028F8D00220216B08750020616B5B
:100DD00008752000FFF7D1FAFFF7A3FF050001E037
:100DE000002049E0606B007D032807D0FFF799FFE2
:100DF000401BB0F57A7FF5D903203DE00020616B00
:100E00000875606B807E616BC97E51EA0020AF4936
:100E10004860606B807D616BC97D090451EA0060A8
:100E2000616B097E50EA0120616B497E0843A74946
:100E3000086000F0F7F8A5480068616B486001227F
:100E40008021A34800F08FFB322000F0C8F8002278
:100E500080219F4800F087FB01224FF400719C48DD
:100E600000F081FB022000F0BAF800224FF400717C
:100E7000974800F078FB002032BD10B50400002137
:100E80002000FFF757FB200000F001F810BD91494A
:100E90000968491C8F4A1160416B097D002904D003
:100EA000012903D0042905D014E013E00121874A69
:100EB00011720FE00421854A5172416B897E426BA9
:100EC000D27E52EA0121814A9181416B497E7F4A5B
:100ED0009172FFE770472DE9F04104007B48407AAA
:100EE00000286CD000207949487278488089774979
:100EF0004968884262D17548867A00250027380003
:100F00003100C0B2C9B288422AD200200500FFF7E2
:100F100008FF80465A2200216F4800F0E7F80022BF
:100F200004216D4800F0E2F85A2208216A4800F0D6
:100F3000DDF800220C21684800F0D8F8EDB2012D50
:100F40000CD06248407C002805D0012005005F4895
:100F5000407C0028FBD1FFF7E4FEEFE77F1CCEE7E3
:100F6000002200215C4800F0C1F8002204215A4808
:100F700000F0BCF800220821574800F0B7F8002222
:100F80000C21554800F0B2F80520216B08754F4838
:100F90004068000A216B88764C484068216BC8760F
:100FA0000A272000FFF7E9F9002807D03800471E7C
:100FB000012803DB0A2000F012F8F2E7FFE7BDE8A2
:100FC000F081000045480068401C444908607047B3
:100FD00043480068401C424908607047704738B574
:100FE0000400FFF79EFE0500FFF79BFE401BA0429A
:100FF000FAD331BDC0B200280BD034494968394A10
:10100000116032490968374A51600021354A9160C0
:1010100007E0344909682D4A5160324949682B4A32
:101020001160704770B586B00120FFF7E3FF002024
:101030000190012004902C4803900020009000F0C3
:1010400064FB002822D1694601A800F0F7FB0028C4
:101050001CD100240A2C0DDA224850F82420002349
:10106000E00000F1006111F57041022000F0EEFA9D
:10107000641CEFE700F05CFB50240025194E2A00A9
:101080002100300000F066FC002000E0012006B0E6
:1010900070BD80B500F039FB002814D100200A286B
:1010A0000ADAC10001F1006111F5704109680D4AC9
:1010B00042F82010401CF2E700F03AFB0020FFF756
:1010C00099FF002000E0012002BD00009C100020DC
:1010D0000008014098120020241100209C120020DA
:1010E000A0120020A411002000F0000830B400235A
:1010F000642A01D363242200C4686425B4FBF5F498
:10110000544323000C00002C06D0042C07D0082CDC
:1011100008D00C2C09D00BE00468636308E0046875
:10112000A36305E00468E36302E004682364FFE767
:1011300030BC704710F007024E4B1B6819004FF689
:10114000FF0319404C4B53EA02231943494B1960E2
:10115000704748480068C0F302207047012110F032
:101160001F029140454A40B2430942F8231070479C
:1011700010B440B2002808D50A01414B40B210F02B
:101180000F04234403F8042C03E00A013D4B40B252
:101190001A5410BC704770B4030013F00704D4F164
:1011A0000706052E01D3042001E0D4F10700261D17
:1011B000072E01D2002500E0E51E012616FA00F0F8
:1011C000401E0840A8400121A940491E1140084383
:1011D00070BC704710B50400601EB0F1807F01D371
:1011E00001200EE0601E284908600F215FF0FF30EB
:1011F000FFF7BEFF0020254908600720244908604A
:10120000002010BD10B504002000FFF793FF10BDB3
:10121000F8B504000D0016000027FFF79AFF07003D
:10122000320029003800FFF7B6FF0100200040B26D
:10123000FFF79EFFF1BD10B50400200040B2FFF79C
:101240008DFF10BD10B504002000FFF7C3FF10BDD7
:10125000042806D10E49096851F004010C4A1160B6
:1012600006E00B4909687FF004021140084A11604A
:10127000704700000CED00E00000FA0500E100E01E
:1012800018ED00E000E400E014E000E018E000E009
:1012900010E000E02DE9F84100230024002500269D
:1012A0005FF0000E5FF0000C6246102A80F04D8166
:1012B0005FF0010C1CFA02FC6346D1F800C013EA8F
:1012C0000C0C64469C4240F03E81D1F804C0BCF155
:1012D000000F3DD0BCF1010F24D0BCF1020F2BD088
:1012E000BCF1030F4CD0BCF1110F1FD0BCF1120F99
:1012F00028D0DFF88882C4452AD0DFF88482C4452C
:1013000026D0DFF88082C44522D0DFF87C82C44535
:101310001ED0DFF87882C4451AD0DFF87482C44545
:1013200016D031E0D1F80CC066462DE0D1F80CC0E3
:101330001CF1040C664627E0D1F80CC01CF1080C27
:10134000664621E0D1F80CC01CF10C0C66461BE08F
:10135000D1F808C0BCF1000F03D15FF0040C664661
:101360000DE0D1F808C0BCF1010F04D15FF0080C0A
:101370006646036103E05FF0080C6646436103E0E4
:101380005FF0000C6646FFE7FF2C01D8070000E085
:10139000071DFF2C02D85FEA820E03E0B2F1080CB1
:1013A0005FEA8C0ED7F800C05FF00F0818FA0EF84D
:1013B0003CEA080C16FA0EF858EA0C0CC7F800C004
:1013C000D1F804C05FEACC0C40F1BD80DFF8C4C1A5
:1013D000DCF800C05CF0010CDFF8B881C8F800C090
:1013E000DFF8B0C1DCF800C01CF00108CDF80080C7
:1013F000DDF800C0DFF8A0C15FEA92085CF828C001
:1014000065465FF00F0C12F003085FFA88F85FEA98
:1014100088081CFA08FC35EA0C05DFF880C1604535
:1014200002D15FF0000C16E0DFF874C1604502D114
:101430005FF0010C0FE0DFF86CC1604502D15FF096
:10144000020C08E0DFF860C1604502D15FF0030CD8
:1014500001E05FF0040C12F003085FFA88F85FEA1D
:1014600088081CFA08FC5CEA0505DFF82CC15FEA75
:1014700092084CF82850D1F804C05FEACC3C0AD559
:10148000DFF828C1DCF800C054EA0C0CDFF81C813E
:10149000C8F800C009E0DFF814C1DCF800C03CEA7D
:1014A000040CDFF80881C8F800C0D1F804C05FEA76
:1014B0008C3C0AD5DFF8F8C0DCF800C054EA0C0C0C
:1014C000DFF8EC80C8F800C009E0DFF8E4C0DCF821
:1014D00000C03CEA040CDFF8D880C8F800C0D1F89E
:1014E00004C05FEACC2C0AD5DFF8C8C0DCF800C025
:1014F00054EA0C0CDFF8BC80C8F800C009E0DFF843
:10150000B4C0DCF800C03CEA040CDFF8A880C8F8DE
:1015100000C0D1F804C05FEA8C2C0AD5DFF898C06F
:10152000DCF800C054EA0C0CDFF88C80C8F800C06E
:1015300009E0DFF884C0DCF800C03CEA040CDFF806
:101540007880C8F800C0521CAFE6BDE8F181020007
:10155000936889B20B4202D00123180001E00023F6
:101560001800C0B27047D2B2002A02D089B201611D
:1015700002E089B20B040361704700000000111003
:101580000000121000002110000022100000311095
:10159000000032101810024008000140000801400D
:1015A000000C014000100140001401400004014003
:1015B00004040140080401400C04014070B588B0E7
:1015C000040000250026002221001C20FFF720FE39
:1015D0001C20FFF730FE1A48006850F0010018493F
:1015E00008601748006810F001000090009801A9F9
:1015F00002A800F01FFD00F012FD40000500114898
:10160000B5FBF0F0401E06005FF080400E49086018
:1016100040F2E7300C49C8600B48466000200A4998
:101620000861002008498860074800F055FD00283F
:1016300003D1054800F06DFD00E0012008B070BD49
:101640001C10024040420F00641100202DE9F047B9
:1016500082460E0014001D0001275FF000085FF0B5
:101660000009DFF8BC01007E012801D102204AE018
:101670000120DFF8AC1108764CF2503000F06BF826
:101680000700FFB2002F38D1BAF1010F02D10120BB
:10169000814607E0BAF1020F02D10220814601E043
:1016A000042081460020804640464946C0B2C9B267
:1016B000884222D2200029005FFA88F85FEA0812E7
:1016C00000F0D2FF010089B25FFA88F816EB4800FB
:1016D00000F036F84CF2503000F03DF80700DFF82B
:1016E0004401006840084000DFF838110860FFB28C
:1016F000002F02D118F10108D6E70020DFF82011F1
:1017000008763800C0B2BDE8F08700204549096876
:1017100009060BD54549464A11604649444A1160BD
:1017200040490968090601D501210800C0B2704787
:101730003C48006850F080003A490860002070473B
:101740000022374BDA61374A126852F00102354BFA
:101750001A600180704738B50400FFF7E2FA05000F
:1017600031480068C0070BD514F1010FF8D0002CE8
:1017700004D0FFF7D6FA401B8442F1D2032017E0D1
:1017800029480068800602D520202749086026489D
:101790000068C00607D428480068C00703D4224860
:1017A0000068400703D500F004F8012000E00020A5
:1017B00032BD00201C490968C90607D51849C96906
:1017C00051F00201164AD16150F010001649096823
:1017D000490707D51249C96951F00101104AD16181
:1017E00050F0040014490968C9070BD50C49C969B0
:1017F00051F004010A4AD1610F49096849084900BA
:101800000D4A116040F20111884206D10A49096867
:1018100049084900084A116001E00349086070471F
:10182000F0110020102002400C20024023016745E7
:1018300004200240AB89EFCD1C200240F8B5040023
:101840000D0001260027DFF80001007E012801D1EC
:10185000022050E00120DFF8F0100876206802280E
:1018600017D14CF25030FFF776FF00283DD1012010
:1018700000F042F84CF25030FFF76DFF0600DFF841
:10188000CC0000687FF004010840DFF8C010086059
:101890002BE04CF25030FFF75EFF002825D15FF0BF
:1018A000FF302860A0680700E0684FF48061A268FC
:1018B00001FB0020874218D2380000F032F84CF2C9
:1018C0005030FFF748FF0600DFF8800000687FF027
:1018D00002010840DFF874100860F6B2002E01D053
:1018E0002F6002E017F58067DEE70020DFF8581070
:1018F00008763000C0B2F2BD0021DFF84C20D16183
:10190000DFF84810096851F00401DFF84020116049
:10191000DFF83810096851F04001DFF8302011601D
:1019200070470021084AD1610849096851F0020155
:10193000064A1160064908600449096851F04001EF
:10194000024A116070470000F01100201020024090
:101950001420024062F30F2262F31F42401810F07D
:10196000030308D0C91A1FD3DB0748BF00F8012DB5
:1019700028BF20F8022D130030B414461546103944
:1019800028BF20E93C00FAD8490728BF20E90C000D
:1019900048BF40F8042D890028BF20F8022D48BF19
:1019A00000F8012D30BC7047C91818BF00F8012D90
:1019B000CB0728BF00F8012D7047010270B582B037
:1019C000040000252078C00740F18480DFF8C806B5
:1019D000006810F00C0004280BD0DFF8BC0600688B
:1019E00010F00C0008280ED1DFF8AC060068C00328
:1019F00009D5DFF8A006006880036BD56068002871
:101A000068D1012008E26068B0F5803F08D1DFF8B6
:101A10008406006850F48030DFF87816086038E0FB
:101A20006068002810D1DFF86C06006830F4803060
:101A3000DFF860160860DFF85C06006830F480208C
:101A4000DFF85016086024E06068B0F5A02F10D1D0
:101A5000DFF84006006850F48020DFF83816086090
:101A6000DFF83006006850F48030DFF82816086090
:101A70000FE0DFF82006006830F48030DFF814163D
:101A80000860DFF81006006830F48020DFF80416E4
:101A90000860606800280ED0FFF743F90500DFF802
:101AA000F4050068800315D4FFF73BF9401B652857
:101AB000F5D30320B0E1FFF734F90500DFF8D405D2
:101AC0000068800306D5FFF72CF9401B6528F5D385
:101AD0000320A1E1207880075ED5DFF8BC0500680F
:101AE00010F00C0F0BD0DFF8B005006810F00C0000
:101AF00008281BD1DFF8A0050068C00316D4DFF862
:101B000094050068800704D52069012801D00120D0
:101B100082E1DFF8800500687FF0F8010840616924
:101B200050EAC100DFF86C15086035E02069002834
:101B30001FD00120DFF870150860FFF7F2F80500EC
:101B4000DFF850050068800706D4FFF7EAF8401B6D
:101B50000328F5D303205FE1DFF8380500687FF044
:101B6000F8010840616950EAC100DFF828150860F3
:101B700012E00020DFF830150860FFF7D2F805000A
:101B8000DFF810050068800706D5FFF7CAF8401B8C
:101B90000328F5D303203FE1207800072CD5A06966
:101BA000002816D00120DFF804150860FFF7B9F807
:101BB0000500DFF8F0040068800706D4FFF7B1F8ED
:101BC000401B0328F5D3032026E1012000F04FFA43
:101BD00012E00020DFF8D4140860FFF7A2F8050037
:101BE000DFF8C0040068800706D5FFF79AF8401BAD
:101BF0000328F5D303200FE12078400740F1A980A6
:101C00000026DFF8AC040068C00010D4DFF8A004A0
:101C1000006850F08050DFF898140860DFF89004F6
:101C2000006810F080500090009801200600DFF856
:101C300084040068C00516D4DFF87804006850F406
:101C40008070DFF870140860FFF76BF80500DFF8AC
:101C500064040068C00506D4FFF763F8401B6528DC
:101C6000F5D30320D8E0E068012808D1DFF8480464
:101C7000006850F00100DFF84014086039E0E068C7
:101C8000002811D1DFF83004006840084000DFF878
:101C900028140860DFF8200400687FF00401084081
:101CA000DFF81414086024E0E068052810D1DFF89C
:101CB0000804006850F00400DFF8FC130860DFF847
:101CC000F803006850F00100DFF8EC13086010E042
:101CD000DFF8E403006840084000DFF8DC13086028
:101CE000DFF8D40300687FF004010840DFF8C81370
:101CF0000860E068002810D0FFF713F80500DFF84F
:101D0000B8030068800719D4FFF70BF8401B41F2B5
:101D100089318842F3D303207EE0FFF702F8050003
:101D2000DFF894030068800708D5FEF7FAFF401B30
:101D300041F289318842F3D303206DE0F6B2012EDF
:101D400007D1DFF86C03006830F08050DFF86013D3
:101D50000860E06900285ED0DFF83C03006810F0FE
:101D60000C00082855D0E06902283FD10020DFF898
:101D70004C130860FEF7D5FF0500DFF81803006874
:101D8000800106D5FEF7CDFF401B0328F5D30320C5
:101D900042E0206AB0F5803F09D1DFF8FC0200681C
:101DA00030F40030A1680843DFF8EC120860DFF877
:101DB000E802006830F47410216A0843616A08433D
:101DC000DFF8D41208600120DFF8F0120860FEF797
:101DD000A8FF0500DFF8BC02006880011BD4FEF7F5
:101DE000A0FF401B0328F5D3032015E00020DFF8F7
:101DF000CC120860FEF795FF0500DFF89802006836
:101E0000800108D5FEF78DFF401B0328F5D3032082
:101E100002E0012000E0002076BD70B504000D0056
:101E20000026DFF89C02006810F00700A84211D2DB
:101E3000DFF88C020068C008C0002843DFF8801279
:101E40000860DFF87C02006810F00700A84201D0AB
:101E50000120A4E0207880070AD5DFF83C02006862
:101E60007FF0F0010840A1680843DFF82C120860F9
:101E70002078C00758D56068012806D1DFF8140221
:101E80000068800312D4012089E06068022806D12E
:101E9000DFF800020068800108D401207FE0DFF84D
:101EA000F4010068800701D4012078E0DFF8E80140
:101EB0000068800880006168084377490860FEF781
:101EC00030FF0600606801280ED17348006810F0EA
:101ED0000C00042828D0FEF724FF801B41F2893132
:101EE0008842F2D303205AE0606802280ED16A4883
:101EF000006810F00C00082816D0FEF712FF801BB7
:101F000041F289318842F2D3032048E062480068F8
:101F100010F00C0F08D0FEF704FF801B41F289314E
:101F20008842F3D303203AE06548006810F00700C8
:101F300085420ED262480068C008C000284360494C
:101F400008605F48006810F00700A84201D0012037
:101F500025E02078400707D54F48006830F4E0605E
:101F6000E16808434C4908602078000708D54A48D2
:101F7000006830F46050216950EAC10046490860A9
:101F800000F00EF84F49444A1268C2F30312895C0C
:101F9000C840434908600020FFF710FB002070BDD7
:101FA00070B586B001A84849102200F06DFB474883
:101FB0000088ADF80000002100220023002400204A
:101FC000354D2D68290011F00C05042D02D0082D87
:101FD00003D01DE0314D28001CE001ADC1F3834664
:101FE000AD5D2C00CD030DD56D462B4E3668C6F386
:101FF0004046AD5D2A00294D05FB04F5B5FBF2F521
:102000002B0003E0324D05FB04F52B00180001E026
:10201000224D280006B070BD21480068704780B589
:10202000FFF7FAFF2B491C4A1268C2F30222895CAF
:10203000C84002BD0F220260174A126812F0030264
:102040004260154A126812F0F0028260124A126869
:1020500012F4E062C260104A1268D20812F4E06220
:102060000261174A126812F007020A60704781B0D5
:102070000B490968C9084FF47A72B1FBF2F101FB10
:1020800000F1009100BF00994A1E00920029F9D189
:1020900001B07047001002400410024000127A00A4
:1020A000040000202410024000004242800442420A
:1020B0001C100240007000402010024060004242AC
:1020C00000200240003D0008F03C0008BA1900085A
:1020D00000093D004C3D000810B50400002C01D162
:1020E000012014E094F83D00002805D1002084F878
:1020F0003C00200000F00CF8022084F83D00211D77
:10210000206800F090F9012084F83D00002010BD07
:10211000704701000868C06850F001000A68D0608C
:102120000868006850F001000A68106000207047DD
:1021300010B50400002C01D1012014E094F83D00FA
:10214000002805D1002084F83C002000FEF79DFD0A
:10215000022084F83D00211D206800F064F9012070
:1021600084F83D00002010BD38B504000D000122A8
:102170002900206800F068FA2068DFF824108842FF
:1021800005D12068406C50F4004021684864206804
:10219000006850F0010021680860002032BD000096
:1021A000002C014010B504002068006980071AD592
:1021B0002068C068800716D57FF00200216808619A
:1021C000012020772068806910F0030F03D02000E1
:1021D00000F026F905E0200000F021F9200000F0D1
:1021E00020F9002020772068006940071AD5206870
:1021F000C068400716D57FF00400216808610220FE
:1022000020772068806910F4407F03D0200000F020
:1022100007F905E0200000F002F9200000F001F9C4
:10222000002020772068006900071AD52068C06860
:10223000000716D57FF00800216808610420207788
:102240002068C06910F0030F03D0200000F0E8F808
:1022500005E0200000F0E3F8200000F0E2F80020A4
:10226000207720680069C0061AD52068C068C006BB
:1022700016D57FF0100021680861082020772068BB
:10228000C06910F4407F03D0200000F0C9F805E0D9
:10229000200000F0C4F8200000F0C3F800202077F0
:1022A00020680069C0070AD52068C068C00706D545
:1022B0007FF0010021680861200000F045FC2068E3
:1022C000006900060AD52068C068000606D57FF0C0
:1022D000800021680861200000F070FC206800691F
:1022E00040060AD52068C068400606D57FF0400049
:1022F00021680861200000F095F8206800698006D8
:102300000AD52068C068800606D57FF020002168C5
:102310000861200000F051FC10BD70B504000D00F4
:10232000160094F83C00012801D1022076E001203B
:1023300084F83C00022084F83D003000002806D0DC
:1023400004281CD0082832D00C2848D05FE029008F
:10235000206800F09EF82068806950F0080021682D
:102360008861206880697FF00401084021688861E5
:1023700020688069296908432168886147E029004D
:10238000206800F0BDF82068806950F40060216882
:1023900088612068806930F48060216888612068E5
:1023A0008069296950EA0120216888612FE02900AD
:1023B000206800F0E1F82068C06950F0080021684A
:1023C000C8612068C0697FF0040108402168C861C5
:1023D0002068C069296908432168C86117E029009D
:1023E000206800F001F92068C06950F4006021689D
:1023F000C8612068C06930F480602168C8612068C5
:10240000C069296950EA01202168C861FFE70120FD
:1024100084F83D00002084F83C00002070BD704727
:10242000704770477047002203681A00834B984238
:1024300008D0B0F1804F05D0814B984202D0814B3B
:10244000984204D17FF070031A404B681A437B4BCB
:10245000984208D0B0F1804F05D0794B984202D015
:10246000784B984203D132F44072CB681A437FF024
:1024700080031A404B691A4302608B68C3620B6881
:1024800083626E4B984201D10B6903630123436160
:10249000704730B4002300240022056A6D086D00E7
:1024A0000562056A2C0045682A0085692B007FF0CB
:1024B00070052B409B089B000D682B437FF00205A5
:1024C0002C408D682C435D4DA84207D17FF0080554
:1024D0002C40CD682C437FF004052C40574DA8427A
:1024E00007D132F4807232F400724D692A438D694B
:1024F0002A43426083614D684563046230BC704783
:1025000070B4002300240022056A7FF010063540D5
:102510000562056A2C0045682A0085692B0033F4A2
:10252000E04333F440730D6853EA05237FF0200540
:102530002C408D6854EA0514404DA84208D17FF024
:1025400080052C40CD6854EA05147FF040052C40EE
:102550003A4DA84209D132F4806232F400624D69EA
:1025600052EA85028D6952EA8502426083614D68B4
:102570008563046270BC704730B4002300240022DD
:10258000056A35F480750562056A2C0045682A00E5
:10259000C5692B007FF070052B409B089B000D68E0
:1025A0002B4334F400748D6854EA0524234DA8426B
:1025B00006D134F40064CD6854EA052434F4806410
:1025C0001E4DA84209D132F4805232F400524D69B6
:1025D00052EA05128D6952EA05124260C3614D68E4
:1025E000C563046230BC704730B40022002300246D
:1025F000056A35F480550562056A2B0045682C0094
:10260000C5692A0032F4E04232F440720D6852EAA1
:10261000052233F400538D6853EA0533074DA84271
:1026200004D134F480444D6954EA85144460C26195
:102630004D680564036230BC70470000002C014007
:10264000000400400008004030B4002301248C4006
:102650002300046A9C430462046A12FA01F52C43C5
:10266000046230BC70470000D2B2203A22BF21FA87
:1026700002F0002170472032D141D04048409140C3
:10268000D140484070470000103A07D330B4B1E859
:102690003810103AA0E83810F9D230BC530724BFE4
:1026A000B1E80810A0E8081044BF51F8043B40F816
:1026B000043BD20724BF31F8022B20F8022B44BF81
:1026C0000B7803707047083A07D3B1E80810083A4E
:1026D00040F8043B40F804CBF7D25307E4E700008E
:1026E00000B58BB0FEF704FB00F05AF800F039F9A2
:1026F00000F0CCF800F099F80021DFF80C04FFF7A7
:1027000033FD0421DFF80004FFF72EFD0821DFF878
:10271000F803FFF729FD0C21DFF8EC03FFF724FD98
:1027200000220021DFF8E003FEF7E0FC0022042194
:10273000DFF8D403FEF7DAFC00220821DFF8C80333
:10274000FEF7D4FC00220C21DFF8BC03FEF7CEFC20
:1027500000F072F9DFF8B403FEF7ECFA0021DFF8BD
:10276000AC03FDF7E7FE05A8DFF8A4131422FFF77A
:102770008BFF002105A800F031FADFF898130860FC
:102780006846DFF894131422FFF77EFF00216846A5
:1027900000F024FADFF88413086000F01AFAFEE76C
:1027A00000B58FB0012005905FF4803006900020C6
:1027B00007900120099002200C905FF480300D906A
:1027C0005FF4E0100E9005A8FFF7F8F8002804D099
:1027D000CB21DFF84C0300F0C0F90F20009002205D
:1027E0000190002002904FF480600390002004903C
:1027F00002216846FFF711FB002803D0D921C84801
:1028000000F0ABF9FFF708FC4FF47A71B0FBF1F080
:10281000FEF718FD0420FEF71BFD00220F215FF0DC
:10282000FF30FEF7F5FC0FB000BD80B5BD48B749DD
:1028300008601220B54948600020B4498860002033
:10284000B249C8605FF44020B04908615FF480106D
:10285000AE4948610020AD4988610120AB49C8619B
:102860000120AA4908620120A84948620020A7491E
:1028700088620020A549C862A448FDF737FC0028FB
:1028800003D0FA21A64800F068F901BD00B589B06F
:10289000A5489D49086000209B49486000209A494E
:1028A000886042F6DF609849C86000209649086158
:1028B0000020954988619448FFF73AFC002804D02D
:1028C0004FF48771964800F048F9002000900020EE
:1028D000019069468C4800F041F9002804D040F28C
:1028E00015118F4800F039F9602002900020039004
:1028F0000020049000200690002202A98248FFF7E1
:102900000CFD002804D04FF48F71854800F025F9A4
:10291000042202A97C48FFF700FD002804D040F201
:1029200023117F4800F019F9082202A97648FFF721
:10293000F4FC002804D04FF49471794800F00DF9AC
:102940000C2202A97048FFF7E8FC002804D040F2EE
:102950002D11734800F001F96B48FEF7A9F909B091
:1029600000BD00B585B07148006850F020006F4987
:1029700008606E48006810F02000009000986B48D6
:10298000006850F00400694908606848006810F069
:102990000400009000986548006850F00800634902
:1029A00008606248006810F008000090009800225B
:1029B0004FF420715E48FEF7D6FD012220215D48CC
:1029C000FEF7D1FD0120019000200290022003902B
:1029D00001A95748FEF75EFC4FF4207001900120DA
:1029E0000290002003900220049001A95048FEF7B5
:1029F00051FC03200190002002900120039001A9C6
:102A00004C48FEF747FC4FF4806001900020029094
:102A10000020039001A94648FEF73CFC20200190CD
:102A200001200290012003900220049001A9414856
:102A3000FEF730FC05B000BD30B58BB03E483349E1
:102A400008630A203149096B486008202F49096B47
:102A5000086104202D49096B886000202B49096B0F
:102A6000C8603648294948630A202849496B4860AC
:102A700008202649496B086104202449496B886075
:102A800000202249496BC8600024012500200590E0
:102A90000120069001200790600100900020019025
:102AA000C5F34F300290E80080B250F0040003906C
:102AB00000200490012008900E20099069461348D8
:102AC000FDF7C7FB0BB030BD38B50400012500F0A1
:102AD000BDFA1B4908602900194800F0A1F901213D
:102AE0001348FEF734FD0200D2B20121154800F070
:102AF000B3FCF0E710B504000448FEF754F90348AE
:102B0000FEF7E9F9F8E7000024110020E0100020AA
:102B1000C83C0008B4120020DC3C0008B8120020B9
:102B2000DC3B000800640040000800401810024030
:102B300000080140000C014010120020CC110020C0
:102B4000BC120020AC10002010B504002068B0F1C9
:102B5000804F01D1FEF7DDF810BDFEE7020092F8CC
:102B60003C00012801D1022026E0012082F83C002F
:102B7000022082F83D00106840687FF07003184022
:102B800013685860106840680B68184313685860F1
:102B9000106880687FF080031840136898601068A0
:102BA00080684B68184313689860012082F83D00E4
:102BB000002082F83C0000207047704770470000FA
:102BC0000100002009B2842902D009B2CA1C1018E1
:102BD000704780B500F07FF9002002BD3EB50400CB
:102BE0000D00B4F90800FFF7EBFF02A90191009076
:102BF0002B00226992B22168606800F00FF801286A
:102C000001D0002000E002983EBD80B500F098FBA6
:102C1000012801D000F05DFD01BD00002DE9F04F5D
:102C200085B004000D0016001F00DDF83880DDF8C7
:102C30003C90B6B2B00000F07FFD8346BBF1000FC0
:102C40000DD0542000F078FD8246BAF1000F02D07A
:102C5000CAF830B005E0584600F0FBFD01E0002066
:102C60008246BAF1000F14D000200390CDF808A0DE
:102C7000CDF80490CDF800803B00B6B232002900B8
:102C8000200000F00DF8504600F06EF8012004908E
:102C900002E05FF0FF300490049805B0BDE8F08FCB
:102CA0002DE9F14F0C0015001E000A9FDDF82C8065
:102CB000DDF83090D9F8300000EB8500001F824627
:102CC0005FEADA0A5FEACA0A1AF00700002807D0AA
:102CD000502080F31188BFF34F8FBFF36F8FFEE753
:102CE00000208346BBF1100F0CD214F80B0009EB47
:102CF0000B0181F8340014F80B00002802D01BF1FE
:102D0000010BEFE7002089F84300072F01D30620CD
:102D10000700C9F82C70C9F844700020C9F84800B1
:102D200019F1040000F059FE19F1180000F055FEE9
:102D3000C9F81090D7F10700C9F81800C9F8249015
:102D40000020C9F84C00002089F85000320000999A
:102D5000504600F01FFCC9F80000B8F1000F01D088
:102D6000C8F80090BDE8F18F10B5040000F07BFCBE
:102D7000DFF880040068401CDFF878140860DFF892
:102D80007804006800280AD1DFF86C040460DFF8DA
:102D900064040068012811D100F04CFA0EE0DFF85D
:102DA0005C040068002809D1E06ADFF84C14096867
:102DB000C96A884202D3DFF840040460DFF84004A7
:102DC0000068401CDFF838140860DFF83804006839
:102DD0000121E26A91400843DFF828140860211DB0
:102DE000DFF82404E26A14235A43104400F0F8FD8B
:102DF00000F056FCDFF80404006800280FD0DFF86C
:102E0000F8030068C06AE16A884208D25FF0805027
:102E1000DFF854150860BFF34F8FBFF36F8F10BDFD
:102E20002DE9F84304000D005FF00008002C07D1E5
:102E3000502080F31188BFF34F8FBFF36F8FFEE7F1
:102E4000002D07D1502080F31188BFF34F8FBFF3BF
:102E50006F8FFEE7DFF838040068002807D05020A5
:102E600080F31188BFF34F8FBFF36F8FFEE700F041
:102E700066F8DFF88804D0F800902068281806006B
:102E80002068814507D2206886420BD2B14509D21D
:102E90000120804606E02068864201D3B14501D278
:102EA000012080462660B8F1000F04D00021B6EB67
:102EB000090000F06DFA00F04AF80700002F08D171
:102EC0005FF08050DFF8A0140860BFF34F8FBFF3AE
:102ED0006F8FBDE8F1831CB5DFF8980401900020E6
:102EE000009000238022DFF890140FF22130FFF7CA
:102EF00095FE0400012C16D1502080F31188BFF3F9
:102F00004F8FBFF36F8F5FF0FF30DFF870140860F2
:102F10000120DFF8E81208600020DFF8E013086005
:102F200000F05DFB0AE014F1010F07D1502080F39F
:102F30001188BFF34F8FBFF36F8FFEE713BDDFF82C
:102F400050030068401CDFF848130860704770B5F4
:102F500000240025DFF838030068002807D150203E
:102F600080F31188BFF34F8FBFF36F8FFEE700F040
:102F70007AFBDFF81C030068401EDFF814130860BA
:102F8000DFF80C03006800285CD1DFF868020068F5
:102F9000002857D0DFF8D803006800282AD0DFF8CF
:102FA000D003C068C068040014F1180000F041FDAF
:102FB000201D00F03EFDDFF84C0200680121E26AAE
:102FC00091400843DFF83C120860211DDFF8380209
:102FD000E26A14235A43104400F002FDE06ADFF86D
:102FE00018120968C96A8842D4D30120DFF8241472
:102FF0000860CFE7002C01D000F08BF9DFF88003E8
:103000000668002E0ED000F026F8002803D001201C
:10301000DFF800140860761E002EF4D10020DFF8DF
:1030200060130860DFF8EC03006800280AD0012074
:1030300005005FF08050DFF830130860BFF34F8F5A
:10304000BFF36F8F00F02CFB280070BDDFF8C813B2
:103050000968080070472DE9F0410026DFF83002CA
:10306000006800287BD1DFF894020068471CDFF875
:103070008C020760002F24D1DFF808030068006885
:10308000002807D0502080F31188BFF34F8FBFF383
:103090006F8FFEE7DFF8EC0200688046DFF8E80299
:1030A0000068DFF8E0120860DFF8DC02C0F800809A
:1030B000DFF8D8020068401CDFF8D012086000F08A
:1030C00028F9DFF8B802006887423CD3DFF8B40281
:1030D00000680068002805D15FF0FF30DFF89C121F
:1030E000086030E0DFF89C020068C068C068040037
:1030F00060680500AF4203D2DFF88002056022E07D
:10310000201D00F096FCA06A002803D014F11800DE
:1031100000F08FFC3B4800680121E26A91400843BF
:1031200038490860211D3848E26A14235A43104484
:1031300000F056FCE06A30490968C96A8842C5D384
:1031400001200600C2E730482B490968C96A1422E9
:1031500051434058022809D30120060006E0DFF859
:1031600020020068401CDFF818120860DFF8A40293
:103170000068002801D0012006003000BDE8F08181
:1031800043480068002804D00120DFF88812086056
:103190002EE00020DFF87C1208601A490968B1FAB5
:1031A00081F1D1F11F0108001749142202FB00F23E
:1031B0008958002907D1502181F31188BFF34F8F1F
:1031C000BFF36F8FFEE7104A142303FB00F31A448A
:1031D00011004A6852684A604A6811F108039A422D
:1031E00002D14A6852684A604968C968024A116057
:1031F00070470000D8120020C8120020E4120020FE
:10320000F4120020E01200201010002010B504007D
:1032100000F040F8DFF80C0200680228F8D35FF0F5
:103220008050DFF804120860BFF34F8FBFF36F8F39
:10323000EEE7000010B500200400072C09D2DFF8EB
:10324000E401142101FB04F1084400F0B7FB641C05
:10325000F3E7DFF8D80100F0B1FBDFF8D40100F0AC
:10326000ADFBDFF80C0100F0A9FBDFF8C80100F0AE
:10327000A5FB3E4800F0A2FBDFF8B001DFF8041127
:103280000860DFF8AC01DFF8B011086010BD000085
:103290000013002038B5DFF8A401006800282BD007
:1032A000FFF74DFEDFF88C010068002801D10124F2
:1032B00000E00024FFF74BFE002CECD100F0D3F926
:1032C000DFF87001C068C0680500281D00F0B1FB80
:1032D000DFF848010068401EDFF840110860DFF8A1
:1032E0005C010068401EDFF85411086000F0D8F956
:1032F000280000F005F8CEE731BD0000DC12002008
:1033000010B50400206B00F0A4FA200000F0A1FA30
:1033100010BDDFF8701009680968002905D15FF059
:10332000FF31DFF85820116009E0DFF85810096814
:10333000C968C96808004168DFF84020116070471B
:10334000DFF8FC100968002902D10121080009E01A
:10335000DFF8F0100968002902D10221080001E01D
:10336000002108007047000004ED00E07C120020FE
:1033700054120020FC120020543D0008F8120020D6
:10338000E8120020CC120020D0120020F012002001
:10339000F8B504000D002048076821480068001DAA
:1033A00000F047FB00280BD11D480068264909683A
:1033B0000122C06A12FA00F031EA000022490860D6
:1033C00014F1010F08D1002D06D015480068011D29
:1033D0001E4800F005FB1BE0E019060010480068DD
:1033E0004660BE4207D20E480068011D12480068C0
:1033F00000F002FB0CE00A480068011D1448006858
:1034000000F0FAFA13480068864201D211480660BB
:10341000F1BD0000EC120020DC120020D8120020C8
:10342000C81200201010002004ED00E02C12002033
:103430004012002068120020D0120020D412002078
:10344000E412002000130020E01200207C12002073
:10345000CC120020F812002070B504000D001600F8
:103460002078002807D1002060620020E06201205F
:10347000207000206070206AEDB228182062F6B239
:10348000002E6AD0606AEDB228186062606A19285E
:103490004BD36078002848D1012060700020A062E2
:1034A000E078002801D1012000E00020E070E07801
:1034B000002802D0206AA06101E0206AE061207942
:1034C000002818D0A069E169884208D2206BE16920
:1034D000A269891A884202D2A06880470BE0E0699D
:1034E000A169884207D2206BA169E269891A8842E2
:1034F00001D2A0688047E079002816D0A069E16970
:10350000884207D2E069A169401AC82802D26069DE
:1035100080470AE0E069A169884206D2A069E169B2
:10352000401AC82801D260698047606AB0F5C87F38
:1035300001D30120A070A07800282AD0A07900280B
:1035400027D0E06AEDB22818E062E06A502820D364
:10355000206980470020E0621BE0F6B2002E18D1FF
:10356000A06AEDB22818A062A06A142811D3142012
:10357000A0626078002804D06079002801D0E0685B
:103580008047002060620020E06200206070002020
:10359000A07070BD001F5FF080730360001F4B08B8
:1035A0005B000360001F0FF20D030360143802601C
:1035B000203870475748006810F1010F07D050209D
:1035C00080F31188BFF34F8FBFF36F8FFEE750205A
:1035D00080F31188BFF34F8FBFF36F8FFEE700B505
:1035E00083B04D4801780191FF21017001788DF879
:1035F00000109DF8001011F05001484A1170072189
:10360000474A11609DF8001009060AD54449096827
:10361000491E434A11609DF8001049008DF80010C2
:10362000F0E73F49096809023D4A11603C490968D1
:1036300011F4E0613A4A116001990170394800685B
:1036400050F47000374908603648006850F0704008
:103650003449086000F051F800202E49086000F05D
:1036600030FA00200EBD502080F31188BFF34F8F39
:10367000BFF36F8F27480068401C26490860254823
:10368000006801280BD128480068000607D05020A8
:1036900080F31188BFF34F8FBFF36F8FFEE7704742
:1036A0001C480068002807D1502080F31188BFF320
:1036B0004F8FBFF36F8FFEE716480068401E154915
:1036C000086014480068002802D1002080F31188A7
:1036D000704780B5502080F31188BFF34F8FBFF340
:1036E0006F8FFFF7B8FC002803D05FF080500E49C1
:1036F0000860002080F3118801BD0C4800684FF479
:103700007A71B0FBF1F0401E0949086007200949B1
:10371000086070470000002000E400E0041300206F
:10372000C012002020ED00E004ED00E004000020C5
:1037300014E000E010E000E02DE9F04104005FF04B
:103740000008FFF7FCFB96480068002801D100F054
:10375000BDF89448006804426AD1002C15D0924804
:103760000068041914F0070F0FD014F1080014F0CA
:103770000701441A14F0070F07D0502080F3118876
:10378000BFF34F8FBFF36F8FFEE7002C50D08748F9
:103790000068A0424CD386480600854800680500B2
:1037A0006868A04205D22868002802D02E002D6843
:1037B000F6E77B48006885423AD030687A49096864
:1037C000084480462868306077480068400069688F
:1037D000091B884215D205EB0400070017F007000B
:1037E000002807D0502080F31188BFF34F8FBFF31C
:1037F0006F8FFEE76868001B78606C60380000F02F
:103800009CF86A4800686968401A68490860674817
:10381000006868490968884203D2644800686549BD
:10382000086068685F49096808436860002028608C
:10383000FFF78DFB18F00700002807D0502080F319
:103840001188BFF34F8FBFF36F8FFEE74046BDE88F
:10385000F08170B504002600002C36D05248006874
:1038600040420644350068684E490968084207D15D
:10387000502080F31188BFF34F8FBFF36F8FFEE7A7
:103880002868002807D0502080F31188BFF34F8F9D
:10389000BFF36F8FFEE7686842490968084214D099
:1038A0002868002811D168683E4909688843686023
:1038B000FFF745FB3D480068696808183B49086008
:1038C000280000F03AF8FFF742FB70BD30B44FF427
:1038D0004063394C220012F0070F05D0D21DD208E8
:1038E000D2009B1A344CE3181100314C21600024A3
:1038F0002F4D6C605C1822002B4C2468121BD208E0
:10390000D200274C22600024254D2D686C600024D5
:10391000234D2D682C600800141A4460204C246844
:1039200004604468234D2C604468204D2C605FF097
:1039300000441C4D2C6030BC704710B41C4B1A0066
:103940001368834201D21268FAE7110053680B44EE
:10395000834204D153684468E318536010000100A7
:1039600043680B441468A34211D113680C4C2468BB
:10397000A34208D0436814686468E318436013687E
:103980001B68036005E0064B1B68036001E01368D9
:103990000360824200D0106010BC7047000000003D
:1039A000A4120020B01200205C3D0008A8120020E4
:1039B00090120020AC1200201004002010F1080129
:1039C00041605FF0FF31816010F10801C16010F1CA
:1039D0000801016100210160704700210161704709
:1039E00042684A6093688B6093685960916008618F
:1039F00003685B1C0360704710B40B6813F1010F80
:103A000002D10469220008E010F108042200546881
:103A10002468A34201D35268F9E754684C604C68AB
:103A2000A1608A60516008610468641C046010BC75
:103A30007047010008698A684B689A604A688B6819
:103A40005A6042688A4201D18A68426000220A6153
:103A50000268521E0260006870470000EFF30980A0
:103A6000BFF36F8F1D4B1A6820E9F00F106008B587
:103A70004FF0500080F31188BFF34F8FBFF36F8F6B
:103A8000FFF77EFB4FF0000080F31188BDE808408F
:103A900019680868B0E8F00F80F30988BFF36F8FEA
:103AA00070470E4B19680868B0E8F00F80F309887A
:103AB000BFF36F8F4FF0000080F311884EF00D0EB2
:103AC000704707480068006880F3088862B661B6EE
:103AD000BFF34F8FBFF36F8F00DF0000C8120020CD
:103AE00008ED00E01348006850F00100114908603B
:103AF00011480068114908400F4908600D480068E6
:103B00000F4908400B4908600A48006830F48020DB
:103B1000084908600848006830F4FE00064908605B
:103B20005FF41F00074908605FF000600649086005
:103B30007047000000100240041002400000FFF82F
:103B4000FFFFF6FE0810024008ED00E07047FEE7B8
:103B5000FEE7FEE7FEE7704780B5FFF756F801BDC8
:103B600080B50C48FCF76DFD01BD80B50948FCF738
:103B700068FD01BD80B50748FCF763FD01BD80B558
:103B80000448FCF75EFD01BD80B50348FEF70AFB63
:103B900001BD0000E01000206411002019E050F881
:103BA000041BCB0744BFA9F101035918121F0023BE
:103BB000042A41F8043BF9D25FEA827C0B4604D523
:103BC0004FF0000CA1F800C09B1CD10744BF00219E
:103BD000197050F8042B002AE1D17047463A5C4E28
:103BE00065772053616C652053797374656D5C4310
:103BF0006F64655C43656C6C5C436F72655C5372AB
:103C0000635C6D61696E2E630000000010B450F8B3
:103C1000041B79B10268436802440830DC0744BFE2
:103C2000A9F10104E31852F8044B43F8044B091FAF
:103C3000F9D1ECE710BC704710B507497944183149
:103C4000064C7C44163404E00A68081D1144884779
:103C50000146A142F8D110BD080000002800000074
:103C60003DFFFFFFF80E00001004002000000000E0
:103C70009DFFFFFF0C000000C000000000000020BE
:103C80000000000000F00BF8002801D0FFF7D4FF7F
:103C90000020C046C046FEF723FD00F002F80120D8
:103CA000704700F001B800000746384600F002F8FF
:103CB000FBE7000080B5C046C046024A110018204C
:103CC000ABBEFBE726000200203D0008F52A0008F5
:103CD000000000000000000000010000443D00085A
:103CE000C92A0008030000000000000000010000D5
:103CF00002030405060708090A0B0C0D0E0F10102D
:103D0000000000000000000001020304060708098B
:103D10000148804701480047E53A00082D3D00086A
:103D200064656661756C745461736B00C046C0460F
:103D3000C046C046FFF7A6FFAAAAAAAA00A24A0444
:103D4000010000007461736B31000000000000008E
:103D50000102030449444C45000000000800000033
:103D6000FFF7FEBFFFF7FEBFFFF7FEBFFFF7FEBF87
:103D7000FFF7FEBFFFF7FEBFFFF7FEBFFFF7FEBF77
:103D8000FFF7FEBFFFF7FEBFFFF7FEBFFFF7FEBF67
:103D9000FFF7FEBFFFF7FEBFFFF7FEBFFFF7FEBF57
:103DA000FFF7FEBFFFF7FEBFFFF7FEBFFFF7FEBF47
:103DB000FFF7FEBFFFF7FEBFFFF7FEBFFFF7FEBF37
:103DC000FFF7FEBFFFF7FEBFFFF7FEBFFFF7FEBF27
:103DD000FFF7FEBFFFF7FEBFFFF7FEBFFFF7FEBF17
:103DE000FFF7FEBFFFF7FEBFFFF7FEBFFFF7FEBF07
:083DF000FFF7FEBFFFF7FEBF65
:0400000508003D2D85
:00000001FF
